{
  "_format": "hh-sol-artifact-1",
  "contractName": "Ecommerce",
  "sourceName": "contracts/Ecommerce.sol",
  "abi": [
    {
      "inputs": [
        {
          "internalType": "string",
          "name": "_name",
          "type": "string"
        },
        {
          "internalType": "string",
          "name": "_category",
          "type": "string"
        },
        {
          "internalType": "uint256",
          "name": "_value",
          "type": "uint256"
        },
        {
          "internalType": "uint256",
          "name": "_quantity",
          "type": "uint256"
        },
        {
          "internalType": "string",
          "name": "_company",
          "type": "string"
        }
      ],
      "name": "addCommodity",
      "outputs": [],
      "stateMutability": "nonpayable",
      "type": "function"
    },
    {
      "inputs": [
        {
          "internalType": "uint256",
          "name": "_index",
          "type": "uint256"
        },
        {
          "internalType": "uint256",
          "name": "_quantity",
          "type": "uint256"
        }
      ],
      "name": "buyCommodity",
      "outputs": [],
      "stateMutability": "nonpayable",
      "type": "function"
    },
    {
      "inputs": [
        {
          "internalType": "uint256",
          "name": "",
          "type": "uint256"
        }
      ],
      "name": "commodities",
      "outputs": [
        {
          "internalType": "string",
          "name": "name",
          "type": "string"
        },
        {
          "internalType": "string",
          "name": "category",
          "type": "string"
        },
        {
          "internalType": "uint256",
          "name": "value",
          "type": "uint256"
        },
        {
          "internalType": "uint256",
          "name": "quantity",
          "type": "uint256"
        },
        {
          "internalType": "string",
          "name": "company",
          "type": "string"
        },
        {
          "internalType": "address",
          "name": "seller",
          "type": "address"
        }
      ],
      "stateMutability": "view",
      "type": "function"
    },
    {
      "inputs": [],
      "name": "deposit",
      "outputs": [],
      "stateMutability": "payable",
      "type": "function"
    },
    {
      "inputs": [
        {
          "internalType": "address",
          "name": "_user",
          "type": "address"
        }
      ],
      "name": "getBalance",
      "outputs": [
        {
          "internalType": "uint256",
          "name": "",
          "type": "uint256"
        }
      ],
      "stateMutability": "view",
      "type": "function"
    },
    {
      "inputs": [],
      "name": "getCommodities",
      "outputs": [
        {
          "components": [
            {
              "internalType": "string",
              "name": "name",
              "type": "string"
            },
            {
              "internalType": "string",
              "name": "category",
              "type": "string"
            },
            {
              "internalType": "uint256",
              "name": "value",
              "type": "uint256"
            },
            {
              "internalType": "uint256",
              "name": "quantity",
              "type": "uint256"
            },
            {
              "internalType": "string",
              "name": "company",
              "type": "string"
            },
            {
              "internalType": "address",
              "name": "seller",
              "type": "address"
            }
          ],
          "internalType": "struct Ecommerce.Commodity[]",
          "name": "",
          "type": "tuple[]"
        }
      ],
      "stateMutability": "view",
      "type": "function"
    },
    {
      "inputs": [
        {
          "internalType": "address",
          "name": "_user",
          "type": "address"
        }
      ],
      "name": "getEthBalance",
      "outputs": [
        {
          "internalType": "uint256",
          "name": "",
          "type": "uint256"
        }
      ],
      "stateMutability": "view",
      "type": "function"
    },
    {
      "inputs": [],
      "name": "getMyProfile",
      "outputs": [
        {
          "components": [
            {
              "internalType": "string",
              "name": "firstName",
              "type": "string"
            },
            {
              "internalType": "string",
              "name": "lastName",
              "type": "string"
            },
            {
              "internalType": "uint256",
              "name": "age",
              "type": "uint256"
            },
            {
              "internalType": "string",
              "name": "gender",
              "type": "string"
            },
            {
              "internalType": "bool",
              "name": "isSeller",
              "type": "bool"
            },
            {
              "internalType": "string",
              "name": "email",
              "type": "string"
            },
            {
              "internalType": "uint256",
              "name": "balance",
              "type": "uint256"
            }
          ],
          "internalType": "struct Ecommerce.User",
          "name": "",
          "type": "tuple"
        }
      ],
      "stateMutability": "view",
      "type": "function"
    },
    {
      "inputs": [],
      "name": "getOrders",
      "outputs": [
        {
          "components": [
            {
              "internalType": "uint256",
              "name": "id",
              "type": "uint256"
            },
            {
              "internalType": "address",
              "name": "buyer",
              "type": "address"
            },
            {
              "internalType": "uint256",
              "name": "commodityId",
              "type": "uint256"
            },
            {
              "internalType": "uint256",
              "name": "quantity",
              "type": "uint256"
            },
            {
              "internalType": "uint256",
              "name": "totalPrice",
              "type": "uint256"
            },
            {
              "internalType": "uint256",
              "name": "timestamp",
              "type": "uint256"
            },
            {
              "internalType": "string",
              "name": "status",
              "type": "string"
            }
          ],
          "internalType": "struct Ecommerce.Order[]",
          "name": "",
          "type": "tuple[]"
        }
      ],
      "stateMutability": "view",
      "type": "function"
    },
    {
      "inputs": [
        {
          "internalType": "address",
          "name": "_user",
          "type": "address"
        }
      ],
      "name": "getOrdersByUser",
      "outputs": [
        {
          "components": [
            {
              "internalType": "uint256",
              "name": "id",
              "type": "uint256"
            },
            {
              "internalType": "address",
              "name": "buyer",
              "type": "address"
            },
            {
              "internalType": "uint256",
              "name": "commodityId",
              "type": "uint256"
            },
            {
              "internalType": "uint256",
              "name": "quantity",
              "type": "uint256"
            },
            {
              "internalType": "uint256",
              "name": "totalPrice",
              "type": "uint256"
            },
            {
              "internalType": "uint256",
              "name": "timestamp",
              "type": "uint256"
            },
            {
              "internalType": "string",
              "name": "status",
              "type": "string"
            }
          ],
          "internalType": "struct Ecommerce.Order[]",
          "name": "",
          "type": "tuple[]"
        }
      ],
      "stateMutability": "view",
      "type": "function"
    },
    {
      "inputs": [
        {
          "internalType": "address",
          "name": "_userAddress",
          "type": "address"
        }
      ],
      "name": "getUserById",
      "outputs": [
        {
          "internalType": "string",
          "name": "firstName",
          "type": "string"
        },
        {
          "internalType": "string",
          "name": "lastName",
          "type": "string"
        },
        {
          "internalType": "uint256",
          "name": "age",
          "type": "uint256"
        },
        {
          "internalType": "string",
          "name": "gender",
          "type": "string"
        },
        {
          "internalType": "bool",
          "name": "isSeller",
          "type": "bool"
        },
        {
          "internalType": "string",
          "name": "email",
          "type": "string"
        },
        {
          "internalType": "uint256",
          "name": "balance",
          "type": "uint256"
        }
      ],
      "stateMutability": "view",
      "type": "function"
    },
    {
      "inputs": [
        {
          "internalType": "uint256",
          "name": "",
          "type": "uint256"
        }
      ],
      "name": "orders",
      "outputs": [
        {
          "internalType": "uint256",
          "name": "id",
          "type": "uint256"
        },
        {
          "internalType": "address",
          "name": "buyer",
          "type": "address"
        },
        {
          "internalType": "uint256",
          "name": "commodityId",
          "type": "uint256"
        },
        {
          "internalType": "uint256",
          "name": "quantity",
          "type": "uint256"
        },
        {
          "internalType": "uint256",
          "name": "totalPrice",
          "type": "uint256"
        },
        {
          "internalType": "uint256",
          "name": "timestamp",
          "type": "uint256"
        },
        {
          "internalType": "string",
          "name": "status",
          "type": "string"
        }
      ],
      "stateMutability": "view",
      "type": "function"
    },
    {
      "inputs": [
        {
          "internalType": "string",
          "name": "_firstName",
          "type": "string"
        },
        {
          "internalType": "string",
          "name": "_lastName",
          "type": "string"
        },
        {
          "internalType": "uint256",
          "name": "_age",
          "type": "uint256"
        },
        {
          "internalType": "string",
          "name": "_gender",
          "type": "string"
        },
        {
          "internalType": "bool",
          "name": "_isSeller",
          "type": "bool"
        },
        {
          "internalType": "string",
          "name": "_email",
          "type": "string"
        }
      ],
      "name": "register",
      "outputs": [],
      "stateMutability": "nonpayable",
      "type": "function"
    },
    {
      "inputs": [
        {
          "internalType": "uint256",
          "name": "_orderId",
          "type": "uint256"
        },
        {
          "internalType": "string",
          "name": "_status",
          "type": "string"
        }
      ],
      "name": "updateOrderStatus",
      "outputs": [],
      "stateMutability": "nonpayable",
      "type": "function"
    },
    {
      "inputs": [
        {
          "internalType": "string",
          "name": "_firstName",
          "type": "string"
        },
        {
          "internalType": "string",
          "name": "_lastName",
          "type": "string"
        },
        {
          "internalType": "uint256",
          "name": "_age",
          "type": "uint256"
        },
        {
          "internalType": "string",
          "name": "_gender",
          "type": "string"
        },
        {
          "internalType": "string",
          "name": "_email",
          "type": "string"
        }
      ],
      "name": "updateProfile",
      "outputs": [],
      "stateMutability": "nonpayable",
      "type": "function"
    },
    {
      "inputs": [
        {
          "internalType": "address",
          "name": "",
          "type": "address"
        },
        {
          "internalType": "uint256",
          "name": "",
          "type": "uint256"
        }
      ],
      "name": "userOrders",
      "outputs": [
        {
          "internalType": "uint256",
          "name": "",
          "type": "uint256"
        }
      ],
      "stateMutability": "view",
      "type": "function"
    },
    {
      "inputs": [
        {
          "internalType": "address",
          "name": "",
          "type": "address"
        }
      ],
      "name": "users",
      "outputs": [
        {
          "internalType": "string",
          "name": "firstName",
          "type": "string"
        },
        {
          "internalType": "string",
          "name": "lastName",
          "type": "string"
        },
        {
          "internalType": "uint256",
          "name": "age",
          "type": "uint256"
        },
        {
          "internalType": "string",
          "name": "gender",
          "type": "string"
        },
        {
          "internalType": "bool",
          "name": "isSeller",
          "type": "bool"
        },
        {
          "internalType": "string",
          "name": "email",
          "type": "string"
        },
        {
          "internalType": "uint256",
          "name": "balance",
          "type": "uint256"
        }
      ],
      "stateMutability": "view",
      "type": "function"
    }
  ],
  "bytecode": "0x6080604052348015600f57600080fd5b5061330f8061001f6000396000f3fe6080604052600436106100fe5760003560e01c8063856652e911610095578063b425376911610064578063b42537691461037d578063bb820ba0146103a8578063d0e30db0146103d1578063f8b2cb4f146103db578063fcfd84e214610418576100fe565b8063856652e914610291578063970907f5146102ce578063a85c38ef146102f7578063a87430ba1461033a576100fe565b80632e2dc43e116100d15780632e2dc43e146101d757806346af4f57146102025780634d2301cc1461022b5780638466a26214610268576100fe565b806318f1c70914610103578063205fdde61461014057806321527e50146101695780632301ab1e14610194575b600080fd5b34801561010f57600080fd5b5061012a60048036038101906101259190612047565b61045a565b604051610137919061228a565b60405180910390f35b34801561014c57600080fd5b506101676004803603810190610162919061240d565b6106ea565b005b34801561017557600080fd5b5061017e6107e4565b60405161018b9190612535565b60405180910390f35b3480156101a057600080fd5b506101bb60048036038101906101b69190612047565b610ab1565b6040516101ce97969594939291906125bf565b60405180910390f35b3480156101e357600080fd5b506101ec610d75565b6040516101f9919061228a565b60405180910390f35b34801561020e57600080fd5b506102296004803603810190610224919061264a565b610eee565b005b34801561023757600080fd5b50610252600480360381019061024d9190612047565b611090565b60405161025f9190612719565b60405180910390f35b34801561027457600080fd5b5061028f600480360381019061028a9190612734565b6110b1565b005b34801561029d57600080fd5b506102b860048036038101906102b39190612774565b611445565b6040516102c59190612719565b60405180910390f35b3480156102da57600080fd5b506102f560048036038101906102f091906127e0565b611476565b005b34801561030357600080fd5b5061031e600480360381019061031991906128dd565b611581565b6040516103319796959493929190612919565b60405180910390f35b34801561034657600080fd5b50610361600480360381019061035c9190612047565b61167b565b60405161037497969594939291906125bf565b60405180910390f35b34801561038957600080fd5b506103926118ea565b60405161039f9190612ae8565b60405180910390f35b3480156103b457600080fd5b506103cf60048036038101906103ca9190612b0a565b611b69565b005b6103d9611c57565b005b3480156103e757600080fd5b5061040260048036038101906103fd9190612047565b611cf4565b60405161040f9190612719565b60405180910390f35b34801561042457600080fd5b5061043f600480360381019061043a91906128dd565b611d3f565b60405161045196959493929190612bf5565b60405180910390f35b60606000600360008473ffffffffffffffffffffffffffffffffffffffff1673ffffffffffffffffffffffffffffffffffffffff1681526020019081526020016000208054806020026020016040519081016040528092919081815260200182805480156104e757602002820191906000526020600020905b8154815260200190600101908083116104d3575b505050505090506000815167ffffffffffffffff81111561050b5761050a6122e2565b5b60405190808252806020026020018201604052801561054457816020015b610531611f43565b8152602001906001900390816105295790505b50905060005b82518110156106df57600283828151811061056857610567612c6b565b5b60200260200101518154811061058157610580612c6b565b5b90600052602060002090600702016040518060e0016040529081600082015481526020016001820160009054906101000a900473ffffffffffffffffffffffffffffffffffffffff1673ffffffffffffffffffffffffffffffffffffffff1673ffffffffffffffffffffffffffffffffffffffff1681526020016002820154815260200160038201548152602001600482015481526020016005820154815260200160068201805461063290612cc9565b80601f016020809104026020016040519081016040528092919081815260200182805461065e90612cc9565b80156106ab5780601f10610680576101008083540402835291602001916106ab565b820191906000526020600020905b81548152906001019060200180831161068e57829003601f168201915b5050505050815250508282815181106106c7576106c6612c6b565b5b6020026020010181905250808060010191505061054a565b508092505050919050565b600060028381548110610700576106ff612c6b565b5b906000526020600020906007020190506000600182600201548154811061072a57610729612c6b565b5b906000526020600020906006020190508060050160009054906101000a900473ffffffffffffffffffffffffffffffffffffffff1673ffffffffffffffffffffffffffffffffffffffff163373ffffffffffffffffffffffffffffffffffffffff16146107cc576040517f08c379a00000000000000000000000000000000000000000000000000000000081526004016107c390612d46565b60405180910390fd5b828260060190816107dd9190612f12565b5050505050565b6107ec611f96565b6000803373ffffffffffffffffffffffffffffffffffffffff1673ffffffffffffffffffffffffffffffffffffffff1681526020019081526020016000206040518060e001604052908160008201805461084590612cc9565b80601f016020809104026020016040519081016040528092919081815260200182805461087190612cc9565b80156108be5780601f10610893576101008083540402835291602001916108be565b820191906000526020600020905b8154815290600101906020018083116108a157829003601f168201915b505050505081526020016001820180546108d790612cc9565b80601f016020809104026020016040519081016040528092919081815260200182805461090390612cc9565b80156109505780601f1061092557610100808354040283529160200191610950565b820191906000526020600020905b81548152906001019060200180831161093357829003601f168201915b505050505081526020016002820154815260200160038201805461097390612cc9565b80601f016020809104026020016040519081016040528092919081815260200182805461099f90612cc9565b80156109ec5780601f106109c1576101008083540402835291602001916109ec565b820191906000526020600020905b8154815290600101906020018083116109cf57829003601f168201915b505050505081526020016004820160009054906101000a900460ff16151515158152602001600582018054610a2090612cc9565b80601f0160208091040260200160405190810160405280929190818152602001828054610a4c90612cc9565b8015610a995780601f10610a6e57610100808354040283529160200191610a99565b820191906000526020600020905b815481529060010190602001808311610a7c57829003601f168201915b50505050508152602001600682015481525050905090565b60608060006060600060606000806000808a73ffffffffffffffffffffffffffffffffffffffff1673ffffffffffffffffffffffffffffffffffffffff168152602001908152602001600020905080600001816001018260020154836003018460040160009054906101000a900460ff16856005018660060154868054610b3790612cc9565b80601f0160208091040260200160405190810160405280929190818152602001828054610b6390612cc9565b8015610bb05780601f10610b8557610100808354040283529160200191610bb0565b820191906000526020600020905b815481529060010190602001808311610b9357829003601f168201915b50505050509650858054610bc390612cc9565b80601f0160208091040260200160405190810160405280929190818152602001828054610bef90612cc9565b8015610c3c5780601f10610c1157610100808354040283529160200191610c3c565b820191906000526020600020905b815481529060010190602001808311610c1f57829003601f168201915b50505050509550838054610c4f90612cc9565b80601f0160208091040260200160405190810160405280929190818152602001828054610c7b90612cc9565b8015610cc85780601f10610c9d57610100808354040283529160200191610cc8565b820191906000526020600020905b815481529060010190602001808311610cab57829003601f168201915b50505050509350818054610cdb90612cc9565b80601f0160208091040260200160405190810160405280929190818152602001828054610d0790612cc9565b8015610d545780601f10610d2957610100808354040283529160200191610d54565b820191906000526020600020905b815481529060010190602001808311610d3757829003601f168201915b50505050509150975097509750975097509750975050919395979092949650565b60606002805480602002602001604051908101604052809291908181526020016000905b82821015610ee557838290600052602060002090600702016040518060e0016040529081600082015481526020016001820160009054906101000a900473ffffffffffffffffffffffffffffffffffffffff1673ffffffffffffffffffffffffffffffffffffffff1673ffffffffffffffffffffffffffffffffffffffff16815260200160028201548152602001600382015481526020016004820154815260200160058201548152602001600682018054610e5490612cc9565b80601f0160208091040260200160405190810160405280929190818152602001828054610e8090612cc9565b8015610ecd5780601f10610ea257610100808354040283529160200191610ecd565b820191906000526020600020905b815481529060010190602001808311610eb057829003601f168201915b50505050508152505081526020019060010190610d99565b50505050905090565b6000803373ffffffffffffffffffffffffffffffffffffffff1673ffffffffffffffffffffffffffffffffffffffff16815260200190815260200160002060040160009054906101000a900460ff16610f7c576040517f08c379a0000000000000000000000000000000000000000000000000000000008152600401610f7390613030565b60405180910390fd5b60016040518060c001604052808781526020018681526020018581526020018481526020018381526020013373ffffffffffffffffffffffffffffffffffffffff1681525090806001815401808255809150506001900390600052602060002090600602016000909190919091506000820151816000019081610fff9190612f12565b5060208201518160010190816110159190612f12565b506040820151816002015560608201518160030155608082015181600401908161103f9190612f12565b5060a08201518160050160006101000a81548173ffffffffffffffffffffffffffffffffffffffff021916908373ffffffffffffffffffffffffffffffffffffffff16021790555050505050505050565b60008173ffffffffffffffffffffffffffffffffffffffff16319050919050565b6000600183815481106110c7576110c6612c6b565b5b90600052602060002090600602019050818160030154101561111e576040517f08c379a00000000000000000000000000000000000000000000000000000000081526004016111159061309c565b60405180910390fd5b600082826002015461113091906130eb565b9050806000803373ffffffffffffffffffffffffffffffffffffffff1673ffffffffffffffffffffffffffffffffffffffff1681526020019081526020016000206006015410156111b6576040517f08c379a00000000000000000000000000000000000000000000000000000000081526004016111ad90613179565b60405180910390fd5b806000803373ffffffffffffffffffffffffffffffffffffffff1673ffffffffffffffffffffffffffffffffffffffff16815260200190815260200160002060060160008282546112079190613199565b92505081905550828260030160008282546112229190613199565b925050819055508160050160009054906101000a900473ffffffffffffffffffffffffffffffffffffffff1673ffffffffffffffffffffffffffffffffffffffff166108fc829081150290604051600060405180830381858888f19350505050158015611293573d6000803e3d6000fd5b506000600280549050905060026040518060e001604052808381526020013373ffffffffffffffffffffffffffffffffffffffff1681526020018781526020018681526020018481526020014281526020016040518060400160405280600781526020017f50656e64696e670000000000000000000000000000000000000000000000000081525081525090806001815401808255809150506001900390600052602060002090600702016000909190919091506000820151816000015560208201518160010160006101000a81548173ffffffffffffffffffffffffffffffffffffffff021916908373ffffffffffffffffffffffffffffffffffffffff16021790555060408201518160020155606082015181600301556080820151816004015560a0820151816005015560c08201518160060190816113d59190612f12565b505050600360003373ffffffffffffffffffffffffffffffffffffffff1673ffffffffffffffffffffffffffffffffffffffff1681526020019081526020016000208190806001815401808255809150506001900390600052602060002001600090919091909150555050505050565b6003602052816000526040600020818154811061146157600080fd5b90600052602060002001600091509150505481565b6040518060e00160405280878152602001868152602001858152602001848152602001831515815260200182815260200160008152506000803373ffffffffffffffffffffffffffffffffffffffff1673ffffffffffffffffffffffffffffffffffffffff16815260200190815260200160002060008201518160000190816114ff9190612f12565b5060208201518160010190816115159190612f12565b506040820151816002015560608201518160030190816115359190612f12565b5060808201518160040160006101000a81548160ff02191690831515021790555060a082015181600501908161156b9190612f12565b5060c08201518160060155905050505050505050565b6002818154811061159157600080fd5b90600052602060002090600702016000915090508060000154908060010160009054906101000a900473ffffffffffffffffffffffffffffffffffffffff16908060020154908060030154908060040154908060050154908060060180546115f890612cc9565b80601f016020809104026020016040519081016040528092919081815260200182805461162490612cc9565b80156116715780601f1061164657610100808354040283529160200191611671565b820191906000526020600020905b81548152906001019060200180831161165457829003601f168201915b5050505050905087565b600060205280600052604060002060009150905080600001805461169e90612cc9565b80601f01602080910402602001604051908101604052809291908181526020018280546116ca90612cc9565b80156117175780601f106116ec57610100808354040283529160200191611717565b820191906000526020600020905b8154815290600101906020018083116116fa57829003601f168201915b50505050509080600101805461172c90612cc9565b80601f016020809104026020016040519081016040528092919081815260200182805461175890612cc9565b80156117a55780601f1061177a576101008083540402835291602001916117a5565b820191906000526020600020905b81548152906001019060200180831161178857829003601f168201915b5050505050908060020154908060030180546117c090612cc9565b80601f01602080910402602001604051908101604052809291908181526020018280546117ec90612cc9565b80156118395780601f1061180e57610100808354040283529160200191611839565b820191906000526020600020905b81548152906001019060200180831161181c57829003601f168201915b5050505050908060040160009054906101000a900460ff169080600501805461186190612cc9565b80601f016020809104026020016040519081016040528092919081815260200182805461188d90612cc9565b80156118da5780601f106118af576101008083540402835291602001916118da565b820191906000526020600020905b8154815290600101906020018083116118bd57829003601f168201915b5050505050908060060154905087565b60606001805480602002602001604051908101604052809291908181526020016000905b82821015611b6057838290600052602060002090600602016040518060c001604052908160008201805461194190612cc9565b80601f016020809104026020016040519081016040528092919081815260200182805461196d90612cc9565b80156119ba5780601f1061198f576101008083540402835291602001916119ba565b820191906000526020600020905b81548152906001019060200180831161199d57829003601f168201915b505050505081526020016001820180546119d390612cc9565b80601f01602080910402602001604051908101604052809291908181526020018280546119ff90612cc9565b8015611a4c5780601f10611a2157610100808354040283529160200191611a4c565b820191906000526020600020905b815481529060010190602001808311611a2f57829003601f168201915b505050505081526020016002820154815260200160038201548152602001600482018054611a7990612cc9565b80601f0160208091040260200160405190810160405280929190818152602001828054611aa590612cc9565b8015611af25780601f10611ac757610100808354040283529160200191611af2565b820191906000526020600020905b815481529060010190602001808311611ad557829003601f168201915b505050505081526020016005820160009054906101000a900473ffffffffffffffffffffffffffffffffffffffff1673ffffffffffffffffffffffffffffffffffffffff1673ffffffffffffffffffffffffffffffffffffffff16815250508152602001906001019061190e565b50505050905090565b60008060003373ffffffffffffffffffffffffffffffffffffffff1673ffffffffffffffffffffffffffffffffffffffff16815260200190815260200160002090506000816000018054611bbc90612cc9565b905011611bfe576040517f08c379a0000000000000000000000000000000000000000000000000000000008152600401611bf590613219565b60405180910390fd5b85816000019081611c0f9190612f12565b5084816001019081611c219190612f12565b5083816002018190555082816003019081611c3c9190612f12565b5081816005019081611c4e9190612f12565b50505050505050565b60003411611c9a576040517f08c379a0000000000000000000000000000000000000000000000000000000008152600401611c9190613285565b60405180910390fd5b346000803373ffffffffffffffffffffffffffffffffffffffff1673ffffffffffffffffffffffffffffffffffffffff1681526020019081526020016000206006016000828254611ceb91906132a5565b92505081905550565b60008060008373ffffffffffffffffffffffffffffffffffffffff1673ffffffffffffffffffffffffffffffffffffffff168152602001908152602001600020600601549050919050565b60018181548110611d4f57600080fd5b9060005260206000209060060201600091509050806000018054611d7290612cc9565b80601f0160208091040260200160405190810160405280929190818152602001828054611d9e90612cc9565b8015611deb5780601f10611dc057610100808354040283529160200191611deb565b820191906000526020600020905b815481529060010190602001808311611dce57829003601f168201915b505050505090806001018054611e0090612cc9565b80601f0160208091040260200160405190810160405280929190818152602001828054611e2c90612cc9565b8015611e795780601f10611e4e57610100808354040283529160200191611e79565b820191906000526020600020905b815481529060010190602001808311611e5c57829003601f168201915b505050505090806002015490806003015490806004018054611e9a90612cc9565b80601f0160208091040260200160405190810160405280929190818152602001828054611ec690612cc9565b8015611f135780601f10611ee857610100808354040283529160200191611f13565b820191906000526020600020905b815481529060010190602001808311611ef657829003601f168201915b5050505050908060050160009054906101000a900473ffffffffffffffffffffffffffffffffffffffff16905086565b6040518060e0016040528060008152602001600073ffffffffffffffffffffffffffffffffffffffff16815260200160008152602001600081526020016000815260200160008152602001606081525090565b6040518060e001604052806060815260200160608152602001600081526020016060815260200160001515815260200160608152602001600081525090565b6000604051905090565b600080fd5b600080fd5b600073ffffffffffffffffffffffffffffffffffffffff82169050919050565b600061201482611fe9565b9050919050565b61202481612009565b811461202f57600080fd5b50565b6000813590506120418161201b565b92915050565b60006020828403121561205d5761205c611fdf565b5b600061206b84828501612032565b91505092915050565b600081519050919050565b600082825260208201905092915050565b6000819050602082019050919050565b6000819050919050565b6120b3816120a0565b82525050565b6120c281612009565b82525050565b600081519050919050565b600082825260208201905092915050565b60005b838110156121025780820151818401526020810190506120e7565b60008484015250505050565b6000601f19601f8301169050919050565b600061212a826120c8565b61213481856120d3565b93506121448185602086016120e4565b61214d8161210e565b840191505092915050565b600060e08301600083015161217060008601826120aa565b50602083015161218360208601826120b9565b50604083015161219660408601826120aa565b5060608301516121a960608601826120aa565b5060808301516121bc60808601826120aa565b5060a08301516121cf60a08601826120aa565b5060c083015184820360c08601526121e7828261211f565b9150508091505092915050565b60006122008383612158565b905092915050565b6000602082019050919050565b600061222082612074565b61222a818561207f565b93508360208202850161223c85612090565b8060005b85811015612278578484038952815161225985826121f4565b945061226483612208565b925060208a01995050600181019050612240565b50829750879550505050505092915050565b600060208201905081810360008301526122a48184612215565b905092915050565b6122b5816120a0565b81146122c057600080fd5b50565b6000813590506122d2816122ac565b92915050565b600080fd5b600080fd5b7f4e487b7100000000000000000000000000000000000000000000000000000000600052604160045260246000fd5b61231a8261210e565b810181811067ffffffffffffffff82111715612339576123386122e2565b5b80604052505050565b600061234c611fd5565b90506123588282612311565b919050565b600067ffffffffffffffff821115612378576123776122e2565b5b6123818261210e565b9050602081019050919050565b82818337600083830152505050565b60006123b06123ab8461235d565b612342565b9050828152602081018484840111156123cc576123cb6122dd565b5b6123d784828561238e565b509392505050565b600082601f8301126123f4576123f36122d8565b5b813561240484826020860161239d565b91505092915050565b6000806040838503121561242457612423611fdf565b5b6000612432858286016122c3565b925050602083013567ffffffffffffffff81111561245357612452611fe4565b5b61245f858286016123df565b9150509250929050565b60008115159050919050565b61247e81612469565b82525050565b600060e08301600083015184820360008601526124a1828261211f565b915050602083015184820360208601526124bb828261211f565b91505060408301516124d060408601826120aa565b50606083015184820360608601526124e8828261211f565b91505060808301516124fd6080860182612475565b5060a083015184820360a0860152612515828261211f565b91505060c083015161252a60c08601826120aa565b508091505092915050565b6000602082019050818103600083015261254f8184612484565b905092915050565b600082825260208201905092915050565b6000612573826120c8565b61257d8185612557565b935061258d8185602086016120e4565b6125968161210e565b840191505092915050565b6125aa816120a0565b82525050565b6125b981612469565b82525050565b600060e08201905081810360008301526125d9818a612568565b905081810360208301526125ed8189612568565b90506125fc60408301886125a1565b818103606083015261260e8187612568565b905061261d60808301866125b0565b81810360a083015261262f8185612568565b905061263e60c08301846125a1565b98975050505050505050565b600080600080600060a0868803121561266657612665611fdf565b5b600086013567ffffffffffffffff81111561268457612683611fe4565b5b612690888289016123df565b955050602086013567ffffffffffffffff8111156126b1576126b0611fe4565b5b6126bd888289016123df565b94505060406126ce888289016122c3565b93505060606126df888289016122c3565b925050608086013567ffffffffffffffff811115612700576126ff611fe4565b5b61270c888289016123df565b9150509295509295909350565b600060208201905061272e60008301846125a1565b92915050565b6000806040838503121561274b5761274a611fdf565b5b6000612759858286016122c3565b925050602061276a858286016122c3565b9150509250929050565b6000806040838503121561278b5761278a611fdf565b5b600061279985828601612032565b92505060206127aa858286016122c3565b9150509250929050565b6127bd81612469565b81146127c857600080fd5b50565b6000813590506127da816127b4565b92915050565b60008060008060008060c087890312156127fd576127fc611fdf565b5b600087013567ffffffffffffffff81111561281b5761281a611fe4565b5b61282789828a016123df565b965050602087013567ffffffffffffffff81111561284857612847611fe4565b5b61285489828a016123df565b955050604061286589828a016122c3565b945050606087013567ffffffffffffffff81111561288657612885611fe4565b5b61289289828a016123df565b93505060806128a389828a016127cb565b92505060a087013567ffffffffffffffff8111156128c4576128c3611fe4565b5b6128d089828a016123df565b9150509295509295509295565b6000602082840312156128f3576128f2611fdf565b5b6000612901848285016122c3565b91505092915050565b61291381612009565b82525050565b600060e08201905061292e600083018a6125a1565b61293b602083018961290a565b61294860408301886125a1565b61295560608301876125a1565b61296260808301866125a1565b61296f60a08301856125a1565b81810360c08301526129818184612568565b905098975050505050505050565b600081519050919050565b600082825260208201905092915050565b6000819050602082019050919050565b600060c08301600083015184820360008601526129d8828261211f565b915050602083015184820360208601526129f2828261211f565b9150506040830151612a0760408601826120aa565b506060830151612a1a60608601826120aa565b5060808301518482036080860152612a32828261211f565b91505060a0830151612a4760a08601826120b9565b508091505092915050565b6000612a5e83836129bb565b905092915050565b6000602082019050919050565b6000612a7e8261298f565b612a88818561299a565b935083602082028501612a9a856129ab565b8060005b85811015612ad65784840389528151612ab78582612a52565b9450612ac283612a66565b925060208a01995050600181019050612a9e565b50829750879550505050505092915050565b60006020820190508181036000830152612b028184612a73565b905092915050565b600080600080600060a08688031215612b2657612b25611fdf565b5b600086013567ffffffffffffffff811115612b4457612b43611fe4565b5b612b50888289016123df565b955050602086013567ffffffffffffffff811115612b7157612b70611fe4565b5b612b7d888289016123df565b9450506040612b8e888289016122c3565b935050606086013567ffffffffffffffff811115612baf57612bae611fe4565b5b612bbb888289016123df565b925050608086013567ffffffffffffffff811115612bdc57612bdb611fe4565b5b612be8888289016123df565b9150509295509295909350565b600060c0820190508181036000830152612c0f8189612568565b90508181036020830152612c238188612568565b9050612c3260408301876125a1565b612c3f60608301866125a1565b8181036080830152612c518185612568565b9050612c6060a083018461290a565b979650505050505050565b7f4e487b7100000000000000000000000000000000000000000000000000000000600052603260045260246000fd5b7f4e487b7100000000000000000000000000000000000000000000000000000000600052602260045260246000fd5b60006002820490506001821680612ce157607f821691505b602082108103612cf457612cf3612c9a565b5b50919050565b7f4f6e6c792073656c6c65722063616e2075706461746520737461747573000000600082015250565b6000612d30601d83612557565b9150612d3b82612cfa565b602082019050919050565b60006020820190508181036000830152612d5f81612d23565b9050919050565b60008190508160005260206000209050919050565b60006020601f8301049050919050565b600082821b905092915050565b600060088302612dc87fffffffffffffffffffffffffffffffffffffffffffffffffffffffffffffffff82612d8b565b612dd28683612d8b565b95508019841693508086168417925050509392505050565b6000819050919050565b6000612e0f612e0a612e05846120a0565b612dea565b6120a0565b9050919050565b6000819050919050565b612e2983612df4565b612e3d612e3582612e16565b848454612d98565b825550505050565b600090565b612e52612e45565b612e5d818484612e20565b505050565b5b81811015612e8157612e76600082612e4a565b600181019050612e63565b5050565b601f821115612ec657612e9781612d66565b612ea084612d7b565b81016020851015612eaf578190505b612ec3612ebb85612d7b565b830182612e62565b50505b505050565b600082821c905092915050565b6000612ee960001984600802612ecb565b1980831691505092915050565b6000612f028383612ed8565b9150826002028217905092915050565b612f1b826120c8565b67ffffffffffffffff811115612f3457612f336122e2565b5b612f3e8254612cc9565b612f49828285612e85565b600060209050601f831160018114612f7c5760008415612f6a578287015190505b612f748582612ef6565b865550612fdc565b601f198416612f8a86612d66565b60005b82811015612fb257848901518255600182019150602085019450602081019050612f8d565b86831015612fcf5784890151612fcb601f891682612ed8565b8355505b6001600288020188555050505b505050505050565b7f4f6e6c792073656c6c6572732063616e2061646420636f6d6d6f646974696573600082015250565b600061301a602083612557565b915061302582612fe4565b602082019050919050565b600060208201905081810360008301526130498161300d565b9050919050565b7f4e6f7420656e6f7567682073746f636b00000000000000000000000000000000600082015250565b6000613086601083612557565b915061309182613050565b602082019050919050565b600060208201905081810360008301526130b581613079565b9050919050565b7f4e487b7100000000000000000000000000000000000000000000000000000000600052601160045260246000fd5b60006130f6826120a0565b9150613101836120a0565b925082820261310f816120a0565b91508282048414831517613126576131256130bc565b5b5092915050565b7f536f6c646520696e737566666973616e74000000000000000000000000000000600082015250565b6000613163601183612557565b915061316e8261312d565b602082019050919050565b6000602082019050818103600083015261319281613156565b9050919050565b60006131a4826120a0565b91506131af836120a0565b92508282039050818111156131c7576131c66130bc565b5b92915050565b7f55736572206e6f74207265676973746572656400000000000000000000000000600082015250565b6000613203601383612557565b915061320e826131cd565b602082019050919050565b60006020820190508181036000830152613232816131f6565b9050919050565b7f4d6f6e74616e7420696e76616c69646500000000000000000000000000000000600082015250565b600061326f601083612557565b915061327a82613239565b602082019050919050565b6000602082019050818103600083015261329e81613262565b9050919050565b60006132b0826120a0565b91506132bb836120a0565b92508282019050808211156132d3576132d26130bc565b5b9291505056fea26469706673582212204f98ba3e81e1a221e29e717736bb9a464a722b2b90582f09351709ca102978ba64736f6c634300081c0033",
  "linkReferences": {},
  "deployedLinkReferences": {}
}