{
  "_format": "hh-sol-artifact-1",
  "contractName": "Ecommerce",
  "sourceName": "contracts/Ecommerce.sol",
  "abi": [
    {
      "inputs": [
        {
          "internalType": "string",
          "name": "_name",
          "type": "string"
        },
        {
          "internalType": "string",
          "name": "_category",
          "type": "string"
        },
        {
          "internalType": "uint256",
          "name": "_value",
          "type": "uint256"
        },
        {
          "internalType": "uint256",
          "name": "_quantity",
          "type": "uint256"
        },
        {
          "internalType": "string",
          "name": "_company",
          "type": "string"
        }
      ],
      "name": "addCommodity",
      "outputs": [],
      "stateMutability": "nonpayable",
      "type": "function"
    },
    {
      "inputs": [
        {
          "internalType": "uint256",
          "name": "_index",
          "type": "uint256"
        },
        {
          "internalType": "uint256",
          "name": "_quantity",
          "type": "uint256"
        }
      ],
      "name": "buyCommodity",
      "outputs": [],
      "stateMutability": "nonpayable",
      "type": "function"
    },
    {
      "inputs": [
        {
          "internalType": "uint256",
          "name": "",
          "type": "uint256"
        }
      ],
      "name": "commodities",
      "outputs": [
        {
          "internalType": "string",
          "name": "name",
          "type": "string"
        },
        {
          "internalType": "string",
          "name": "category",
          "type": "string"
        },
        {
          "internalType": "uint256",
          "name": "value",
          "type": "uint256"
        },
        {
          "internalType": "uint256",
          "name": "quantity",
          "type": "uint256"
        },
        {
          "internalType": "string",
          "name": "company",
          "type": "string"
        },
        {
          "internalType": "address",
          "name": "seller",
          "type": "address"
        }
      ],
      "stateMutability": "view",
      "type": "function"
    },
    {
      "inputs": [],
      "name": "deposit",
      "outputs": [],
      "stateMutability": "payable",
      "type": "function"
    },
    {
      "inputs": [
        {
          "internalType": "address",
          "name": "_user",
          "type": "address"
        }
      ],
      "name": "getBalance",
      "outputs": [
        {
          "internalType": "uint256",
          "name": "",
          "type": "uint256"
        }
      ],
      "stateMutability": "view",
      "type": "function"
    },
    {
      "inputs": [],
      "name": "getCommodities",
      "outputs": [
        {
          "components": [
            {
              "internalType": "string",
              "name": "name",
              "type": "string"
            },
            {
              "internalType": "string",
              "name": "category",
              "type": "string"
            },
            {
              "internalType": "uint256",
              "name": "value",
              "type": "uint256"
            },
            {
              "internalType": "uint256",
              "name": "quantity",
              "type": "uint256"
            },
            {
              "internalType": "string",
              "name": "company",
              "type": "string"
            },
            {
              "internalType": "address",
              "name": "seller",
              "type": "address"
            }
          ],
          "internalType": "struct Ecommerce.Commodity[]",
          "name": "",
          "type": "tuple[]"
        }
      ],
      "stateMutability": "view",
      "type": "function"
    },
    {
      "inputs": [
        {
          "internalType": "address",
          "name": "_user",
          "type": "address"
        }
      ],
      "name": "getEthBalance",
      "outputs": [
        {
          "internalType": "uint256",
          "name": "",
          "type": "uint256"
        }
      ],
      "stateMutability": "view",
      "type": "function"
    },
    {
      "inputs": [],
      "name": "getMyProfile",
      "outputs": [
        {
          "components": [
            {
              "internalType": "string",
              "name": "firstName",
              "type": "string"
            },
            {
              "internalType": "string",
              "name": "lastName",
              "type": "string"
            },
            {
              "internalType": "uint256",
              "name": "age",
              "type": "uint256"
            },
            {
              "internalType": "string",
              "name": "gender",
              "type": "string"
            },
            {
              "internalType": "bool",
              "name": "isSeller",
              "type": "bool"
            },
            {
              "internalType": "string",
              "name": "email",
              "type": "string"
            },
            {
              "internalType": "uint256",
              "name": "balance",
              "type": "uint256"
            }
          ],
          "internalType": "struct Ecommerce.User",
          "name": "",
          "type": "tuple"
        }
      ],
      "stateMutability": "view",
      "type": "function"
    },
    {
      "inputs": [],
      "name": "getOrders",
      "outputs": [
        {
          "components": [
            {
              "internalType": "uint256",
              "name": "id",
              "type": "uint256"
            },
            {
              "internalType": "address",
              "name": "buyer",
              "type": "address"
            },
            {
              "internalType": "uint256",
              "name": "commodityId",
              "type": "uint256"
            },
            {
              "internalType": "uint256",
              "name": "quantity",
              "type": "uint256"
            },
            {
              "internalType": "uint256",
              "name": "totalPrice",
              "type": "uint256"
            },
            {
              "internalType": "uint256",
              "name": "timestamp",
              "type": "uint256"
            },
            {
              "internalType": "string",
              "name": "status",
              "type": "string"
            }
          ],
          "internalType": "struct Ecommerce.Order[]",
          "name": "",
          "type": "tuple[]"
        }
      ],
      "stateMutability": "view",
      "type": "function"
    },
    {
      "inputs": [
        {
          "internalType": "address",
          "name": "_user",
          "type": "address"
        }
      ],
      "name": "getOrdersByUser",
      "outputs": [
        {
          "components": [
            {
              "internalType": "uint256",
              "name": "id",
              "type": "uint256"
            },
            {
              "internalType": "address",
              "name": "buyer",
              "type": "address"
            },
            {
              "internalType": "uint256",
              "name": "commodityId",
              "type": "uint256"
            },
            {
              "internalType": "uint256",
              "name": "quantity",
              "type": "uint256"
            },
            {
              "internalType": "uint256",
              "name": "totalPrice",
              "type": "uint256"
            },
            {
              "internalType": "uint256",
              "name": "timestamp",
              "type": "uint256"
            },
            {
              "internalType": "string",
              "name": "status",
              "type": "string"
            }
          ],
          "internalType": "struct Ecommerce.Order[]",
          "name": "",
          "type": "tuple[]"
        }
      ],
      "stateMutability": "view",
      "type": "function"
    },
    {
      "inputs": [
        {
          "internalType": "address",
          "name": "_userAddress",
          "type": "address"
        }
      ],
      "name": "getUserById",
      "outputs": [
        {
          "internalType": "string",
          "name": "firstName",
          "type": "string"
        },
        {
          "internalType": "string",
          "name": "lastName",
          "type": "string"
        },
        {
          "internalType": "uint256",
          "name": "age",
          "type": "uint256"
        },
        {
          "internalType": "string",
          "name": "gender",
          "type": "string"
        },
        {
          "internalType": "bool",
          "name": "isSeller",
          "type": "bool"
        },
        {
          "internalType": "string",
          "name": "email",
          "type": "string"
        },
        {
          "internalType": "uint256",
          "name": "balance",
          "type": "uint256"
        }
      ],
      "stateMutability": "view",
      "type": "function"
    },
    {
      "inputs": [
        {
          "internalType": "uint256",
          "name": "",
          "type": "uint256"
        }
      ],
      "name": "orders",
      "outputs": [
        {
          "internalType": "uint256",
          "name": "id",
          "type": "uint256"
        },
        {
          "internalType": "address",
          "name": "buyer",
          "type": "address"
        },
        {
          "internalType": "uint256",
          "name": "commodityId",
          "type": "uint256"
        },
        {
          "internalType": "uint256",
          "name": "quantity",
          "type": "uint256"
        },
        {
          "internalType": "uint256",
          "name": "totalPrice",
          "type": "uint256"
        },
        {
          "internalType": "uint256",
          "name": "timestamp",
          "type": "uint256"
        },
        {
          "internalType": "string",
          "name": "status",
          "type": "string"
        }
      ],
      "stateMutability": "view",
      "type": "function"
    },
    {
      "inputs": [
        {
          "internalType": "string",
          "name": "_firstName",
          "type": "string"
        },
        {
          "internalType": "string",
          "name": "_lastName",
          "type": "string"
        },
        {
          "internalType": "uint256",
          "name": "_age",
          "type": "uint256"
        },
        {
          "internalType": "string",
          "name": "_gender",
          "type": "string"
        },
        {
          "internalType": "bool",
          "name": "_isSeller",
          "type": "bool"
        },
        {
          "internalType": "string",
          "name": "_email",
          "type": "string"
        }
      ],
      "name": "register",
      "outputs": [],
      "stateMutability": "nonpayable",
      "type": "function"
    },
    {
      "inputs": [
        {
          "internalType": "uint256",
          "name": "_orderId",
          "type": "uint256"
        },
        {
          "internalType": "string",
          "name": "_status",
          "type": "string"
        }
      ],
      "name": "updateOrderStatus",
      "outputs": [],
      "stateMutability": "nonpayable",
      "type": "function"
    },
    {
      "inputs": [
        {
          "internalType": "string",
          "name": "_firstName",
          "type": "string"
        },
        {
          "internalType": "string",
          "name": "_lastName",
          "type": "string"
        },
        {
          "internalType": "uint256",
          "name": "_age",
          "type": "uint256"
        },
        {
          "internalType": "string",
          "name": "_gender",
          "type": "string"
        },
        {
          "internalType": "string",
          "name": "_email",
          "type": "string"
        }
      ],
      "name": "updateProfile",
      "outputs": [],
      "stateMutability": "nonpayable",
      "type": "function"
    },
    {
      "inputs": [
        {
          "internalType": "address",
          "name": "",
          "type": "address"
        },
        {
          "internalType": "uint256",
          "name": "",
          "type": "uint256"
        }
      ],
      "name": "userOrders",
      "outputs": [
        {
          "internalType": "uint256",
          "name": "",
          "type": "uint256"
        }
      ],
      "stateMutability": "view",
      "type": "function"
    },
    {
      "inputs": [
        {
          "internalType": "address",
          "name": "",
          "type": "address"
        }
      ],
      "name": "users",
      "outputs": [
        {
          "internalType": "string",
          "name": "firstName",
          "type": "string"
        },
        {
          "internalType": "string",
          "name": "lastName",
          "type": "string"
        },
        {
          "internalType": "uint256",
          "name": "age",
          "type": "uint256"
        },
        {
          "internalType": "string",
          "name": "gender",
          "type": "string"
        },
        {
          "internalType": "bool",
          "name": "isSeller",
          "type": "bool"
        },
        {
          "internalType": "string",
          "name": "email",
          "type": "string"
        },
        {
          "internalType": "uint256",
          "name": "balance",
          "type": "uint256"
        }
      ],
      "stateMutability": "view",
      "type": "function"
    }
  ],
  "bytecode": "0x6080604052348015600f57600080fd5b5061331e8061001f6000396000f3fe6080604052600436106100fe5760003560e01c8063856652e911610095578063b425376911610064578063b42537691461037d578063bb820ba0146103a8578063d0e30db0146103d1578063f8b2cb4f146103db578063fcfd84e214610418576100fe565b8063856652e914610291578063970907f5146102ce578063a85c38ef146102f7578063a87430ba1461033a576100fe565b80632e2dc43e116100d15780632e2dc43e146101d757806346af4f57146102025780634d2301cc1461022b5780638466a26214610268576100fe565b806318f1c70914610103578063205fdde61461014057806321527e50146101695780632301ab1e14610194575b600080fd5b34801561010f57600080fd5b5061012a60048036038101906101259190612056565b61045a565b6040516101379190612299565b60405180910390f35b34801561014c57600080fd5b506101676004803603810190610162919061241c565b6106ea565b005b34801561017557600080fd5b5061017e6107e4565b60405161018b9190612544565b60405180910390f35b3480156101a057600080fd5b506101bb60048036038101906101b69190612056565b610ab1565b6040516101ce97969594939291906125ce565b60405180910390f35b3480156101e357600080fd5b506101ec610d75565b6040516101f99190612299565b60405180910390f35b34801561020e57600080fd5b5061022960048036038101906102249190612659565b610eee565b005b34801561023757600080fd5b50610252600480360381019061024d9190612056565b611090565b60405161025f9190612728565b60405180910390f35b34801561027457600080fd5b5061028f600480360381019061028a9190612743565b6110b1565b005b34801561029d57600080fd5b506102b860048036038101906102b39190612783565b611454565b6040516102c59190612728565b60405180910390f35b3480156102da57600080fd5b506102f560048036038101906102f091906127ef565b611485565b005b34801561030357600080fd5b5061031e600480360381019061031991906128ec565b611590565b6040516103319796959493929190612928565b60405180910390f35b34801561034657600080fd5b50610361600480360381019061035c9190612056565b61168a565b60405161037497969594939291906125ce565b60405180910390f35b34801561038957600080fd5b506103926118f9565b60405161039f9190612af7565b60405180910390f35b3480156103b457600080fd5b506103cf60048036038101906103ca9190612b19565b611b78565b005b6103d9611c66565b005b3480156103e757600080fd5b5061040260048036038101906103fd9190612056565b611d03565b60405161040f9190612728565b60405180910390f35b34801561042457600080fd5b5061043f600480360381019061043a91906128ec565b611d4e565b60405161045196959493929190612c04565b60405180910390f35b60606000600360008473ffffffffffffffffffffffffffffffffffffffff1673ffffffffffffffffffffffffffffffffffffffff1681526020019081526020016000208054806020026020016040519081016040528092919081815260200182805480156104e757602002820191906000526020600020905b8154815260200190600101908083116104d3575b505050505090506000815167ffffffffffffffff81111561050b5761050a6122f1565b5b60405190808252806020026020018201604052801561054457816020015b610531611f52565b8152602001906001900390816105295790505b50905060005b82518110156106df57600283828151811061056857610567612c7a565b5b60200260200101518154811061058157610580612c7a565b5b90600052602060002090600702016040518060e0016040529081600082015481526020016001820160009054906101000a900473ffffffffffffffffffffffffffffffffffffffff1673ffffffffffffffffffffffffffffffffffffffff1673ffffffffffffffffffffffffffffffffffffffff1681526020016002820154815260200160038201548152602001600482015481526020016005820154815260200160068201805461063290612cd8565b80601f016020809104026020016040519081016040528092919081815260200182805461065e90612cd8565b80156106ab5780601f10610680576101008083540402835291602001916106ab565b820191906000526020600020905b81548152906001019060200180831161068e57829003601f168201915b5050505050815250508282815181106106c7576106c6612c7a565b5b6020026020010181905250808060010191505061054a565b508092505050919050565b600060028381548110610700576106ff612c7a565b5b906000526020600020906007020190506000600182600201548154811061072a57610729612c7a565b5b906000526020600020906006020190508060050160009054906101000a900473ffffffffffffffffffffffffffffffffffffffff1673ffffffffffffffffffffffffffffffffffffffff163373ffffffffffffffffffffffffffffffffffffffff16146107cc576040517f08c379a00000000000000000000000000000000000000000000000000000000081526004016107c390612d55565b60405180910390fd5b828260060190816107dd9190612f21565b5050505050565b6107ec611fa5565b6000803373ffffffffffffffffffffffffffffffffffffffff1673ffffffffffffffffffffffffffffffffffffffff1681526020019081526020016000206040518060e001604052908160008201805461084590612cd8565b80601f016020809104026020016040519081016040528092919081815260200182805461087190612cd8565b80156108be5780601f10610893576101008083540402835291602001916108be565b820191906000526020600020905b8154815290600101906020018083116108a157829003601f168201915b505050505081526020016001820180546108d790612cd8565b80601f016020809104026020016040519081016040528092919081815260200182805461090390612cd8565b80156109505780601f1061092557610100808354040283529160200191610950565b820191906000526020600020905b81548152906001019060200180831161093357829003601f168201915b505050505081526020016002820154815260200160038201805461097390612cd8565b80601f016020809104026020016040519081016040528092919081815260200182805461099f90612cd8565b80156109ec5780601f106109c1576101008083540402835291602001916109ec565b820191906000526020600020905b8154815290600101906020018083116109cf57829003601f168201915b505050505081526020016004820160009054906101000a900460ff16151515158152602001600582018054610a2090612cd8565b80601f0160208091040260200160405190810160405280929190818152602001828054610a4c90612cd8565b8015610a995780601f10610a6e57610100808354040283529160200191610a99565b820191906000526020600020905b815481529060010190602001808311610a7c57829003601f168201915b50505050508152602001600682015481525050905090565b60608060006060600060606000806000808a73ffffffffffffffffffffffffffffffffffffffff1673ffffffffffffffffffffffffffffffffffffffff168152602001908152602001600020905080600001816001018260020154836003018460040160009054906101000a900460ff16856005018660060154868054610b3790612cd8565b80601f0160208091040260200160405190810160405280929190818152602001828054610b6390612cd8565b8015610bb05780601f10610b8557610100808354040283529160200191610bb0565b820191906000526020600020905b815481529060010190602001808311610b9357829003601f168201915b50505050509650858054610bc390612cd8565b80601f0160208091040260200160405190810160405280929190818152602001828054610bef90612cd8565b8015610c3c5780601f10610c1157610100808354040283529160200191610c3c565b820191906000526020600020905b815481529060010190602001808311610c1f57829003601f168201915b50505050509550838054610c4f90612cd8565b80601f0160208091040260200160405190810160405280929190818152602001828054610c7b90612cd8565b8015610cc85780601f10610c9d57610100808354040283529160200191610cc8565b820191906000526020600020905b815481529060010190602001808311610cab57829003601f168201915b50505050509350818054610cdb90612cd8565b80601f0160208091040260200160405190810160405280929190818152602001828054610d0790612cd8565b8015610d545780601f10610d2957610100808354040283529160200191610d54565b820191906000526020600020905b815481529060010190602001808311610d3757829003601f168201915b50505050509150975097509750975097509750975050919395979092949650565b60606002805480602002602001604051908101604052809291908181526020016000905b82821015610ee557838290600052602060002090600702016040518060e0016040529081600082015481526020016001820160009054906101000a900473ffffffffffffffffffffffffffffffffffffffff1673ffffffffffffffffffffffffffffffffffffffff1673ffffffffffffffffffffffffffffffffffffffff16815260200160028201548152602001600382015481526020016004820154815260200160058201548152602001600682018054610e5490612cd8565b80601f0160208091040260200160405190810160405280929190818152602001828054610e8090612cd8565b8015610ecd5780601f10610ea257610100808354040283529160200191610ecd565b820191906000526020600020905b815481529060010190602001808311610eb057829003601f168201915b50505050508152505081526020019060010190610d99565b50505050905090565b6000803373ffffffffffffffffffffffffffffffffffffffff1673ffffffffffffffffffffffffffffffffffffffff16815260200190815260200160002060040160009054906101000a900460ff16610f7c576040517f08c379a0000000000000000000000000000000000000000000000000000000008152600401610f739061303f565b60405180910390fd5b60016040518060c001604052808781526020018681526020018581526020018481526020018381526020013373ffffffffffffffffffffffffffffffffffffffff1681525090806001815401808255809150506001900390600052602060002090600602016000909190919091506000820151816000019081610fff9190612f21565b5060208201518160010190816110159190612f21565b506040820151816002015560608201518160030155608082015181600401908161103f9190612f21565b5060a08201518160050160006101000a81548173ffffffffffffffffffffffffffffffffffffffff021916908373ffffffffffffffffffffffffffffffffffffffff16021790555050505050505050565b60008173ffffffffffffffffffffffffffffffffffffffff16319050919050565b6000600183815481106110c7576110c6612c7a565b5b90600052602060002090600602019050818160030154101561111e576040517f08c379a0000000000000000000000000000000000000000000000000000000008152600401611115906130ab565b60405180910390fd5b600082633b9aca00836002015461113591906130fa565b61113f91906130fa565b9050806000803373ffffffffffffffffffffffffffffffffffffffff1673ffffffffffffffffffffffffffffffffffffffff1681526020019081526020016000206006015410156111c5576040517f08c379a00000000000000000000000000000000000000000000000000000000081526004016111bc90613188565b60405180910390fd5b806000803373ffffffffffffffffffffffffffffffffffffffff1673ffffffffffffffffffffffffffffffffffffffff168152602001908152602001600020600601600082825461121691906131a8565b925050819055508282600301600082825461123191906131a8565b925050819055508160050160009054906101000a900473ffffffffffffffffffffffffffffffffffffffff1673ffffffffffffffffffffffffffffffffffffffff166108fc829081150290604051600060405180830381858888f193505050501580156112a2573d6000803e3d6000fd5b506000600280549050905060026040518060e001604052808381526020013373ffffffffffffffffffffffffffffffffffffffff1681526020018781526020018681526020018481526020014281526020016040518060400160405280600781526020017f50656e64696e670000000000000000000000000000000000000000000000000081525081525090806001815401808255809150506001900390600052602060002090600702016000909190919091506000820151816000015560208201518160010160006101000a81548173ffffffffffffffffffffffffffffffffffffffff021916908373ffffffffffffffffffffffffffffffffffffffff16021790555060408201518160020155606082015181600301556080820151816004015560a0820151816005015560c08201518160060190816113e49190612f21565b505050600360003373ffffffffffffffffffffffffffffffffffffffff1673ffffffffffffffffffffffffffffffffffffffff1681526020019081526020016000208190806001815401808255809150506001900390600052602060002001600090919091909150555050505050565b6003602052816000526040600020818154811061147057600080fd5b90600052602060002001600091509150505481565b6040518060e00160405280878152602001868152602001858152602001848152602001831515815260200182815260200160008152506000803373ffffffffffffffffffffffffffffffffffffffff1673ffffffffffffffffffffffffffffffffffffffff168152602001908152602001600020600082015181600001908161150e9190612f21565b5060208201518160010190816115249190612f21565b506040820151816002015560608201518160030190816115449190612f21565b5060808201518160040160006101000a81548160ff02191690831515021790555060a082015181600501908161157a9190612f21565b5060c08201518160060155905050505050505050565b600281815481106115a057600080fd5b90600052602060002090600702016000915090508060000154908060010160009054906101000a900473ffffffffffffffffffffffffffffffffffffffff169080600201549080600301549080600401549080600501549080600601805461160790612cd8565b80601f016020809104026020016040519081016040528092919081815260200182805461163390612cd8565b80156116805780601f1061165557610100808354040283529160200191611680565b820191906000526020600020905b81548152906001019060200180831161166357829003601f168201915b5050505050905087565b60006020528060005260406000206000915090508060000180546116ad90612cd8565b80601f01602080910402602001604051908101604052809291908181526020018280546116d990612cd8565b80156117265780601f106116fb57610100808354040283529160200191611726565b820191906000526020600020905b81548152906001019060200180831161170957829003601f168201915b50505050509080600101805461173b90612cd8565b80601f016020809104026020016040519081016040528092919081815260200182805461176790612cd8565b80156117b45780601f10611789576101008083540402835291602001916117b4565b820191906000526020600020905b81548152906001019060200180831161179757829003601f168201915b5050505050908060020154908060030180546117cf90612cd8565b80601f01602080910402602001604051908101604052809291908181526020018280546117fb90612cd8565b80156118485780601f1061181d57610100808354040283529160200191611848565b820191906000526020600020905b81548152906001019060200180831161182b57829003601f168201915b5050505050908060040160009054906101000a900460ff169080600501805461187090612cd8565b80601f016020809104026020016040519081016040528092919081815260200182805461189c90612cd8565b80156118e95780601f106118be576101008083540402835291602001916118e9565b820191906000526020600020905b8154815290600101906020018083116118cc57829003601f168201915b5050505050908060060154905087565b60606001805480602002602001604051908101604052809291908181526020016000905b82821015611b6f57838290600052602060002090600602016040518060c001604052908160008201805461195090612cd8565b80601f016020809104026020016040519081016040528092919081815260200182805461197c90612cd8565b80156119c95780601f1061199e576101008083540402835291602001916119c9565b820191906000526020600020905b8154815290600101906020018083116119ac57829003601f168201915b505050505081526020016001820180546119e290612cd8565b80601f0160208091040260200160405190810160405280929190818152602001828054611a0e90612cd8565b8015611a5b5780601f10611a3057610100808354040283529160200191611a5b565b820191906000526020600020905b815481529060010190602001808311611a3e57829003601f168201915b505050505081526020016002820154815260200160038201548152602001600482018054611a8890612cd8565b80601f0160208091040260200160405190810160405280929190818152602001828054611ab490612cd8565b8015611b015780601f10611ad657610100808354040283529160200191611b01565b820191906000526020600020905b815481529060010190602001808311611ae457829003601f168201915b505050505081526020016005820160009054906101000a900473ffffffffffffffffffffffffffffffffffffffff1673ffffffffffffffffffffffffffffffffffffffff1673ffffffffffffffffffffffffffffffffffffffff16815250508152602001906001019061191d565b50505050905090565b60008060003373ffffffffffffffffffffffffffffffffffffffff1673ffffffffffffffffffffffffffffffffffffffff16815260200190815260200160002090506000816000018054611bcb90612cd8565b905011611c0d576040517f08c379a0000000000000000000000000000000000000000000000000000000008152600401611c0490613228565b60405180910390fd5b85816000019081611c1e9190612f21565b5084816001019081611c309190612f21565b5083816002018190555082816003019081611c4b9190612f21565b5081816005019081611c5d9190612f21565b50505050505050565b60003411611ca9576040517f08c379a0000000000000000000000000000000000000000000000000000000008152600401611ca090613294565b60405180910390fd5b346000803373ffffffffffffffffffffffffffffffffffffffff1673ffffffffffffffffffffffffffffffffffffffff1681526020019081526020016000206006016000828254611cfa91906132b4565b92505081905550565b60008060008373ffffffffffffffffffffffffffffffffffffffff1673ffffffffffffffffffffffffffffffffffffffff168152602001908152602001600020600601549050919050565b60018181548110611d5e57600080fd5b9060005260206000209060060201600091509050806000018054611d8190612cd8565b80601f0160208091040260200160405190810160405280929190818152602001828054611dad90612cd8565b8015611dfa5780601f10611dcf57610100808354040283529160200191611dfa565b820191906000526020600020905b815481529060010190602001808311611ddd57829003601f168201915b505050505090806001018054611e0f90612cd8565b80601f0160208091040260200160405190810160405280929190818152602001828054611e3b90612cd8565b8015611e885780601f10611e5d57610100808354040283529160200191611e88565b820191906000526020600020905b815481529060010190602001808311611e6b57829003601f168201915b505050505090806002015490806003015490806004018054611ea990612cd8565b80601f0160208091040260200160405190810160405280929190818152602001828054611ed590612cd8565b8015611f225780601f10611ef757610100808354040283529160200191611f22565b820191906000526020600020905b815481529060010190602001808311611f0557829003601f168201915b5050505050908060050160009054906101000a900473ffffffffffffffffffffffffffffffffffffffff16905086565b6040518060e0016040528060008152602001600073ffffffffffffffffffffffffffffffffffffffff16815260200160008152602001600081526020016000815260200160008152602001606081525090565b6040518060e001604052806060815260200160608152602001600081526020016060815260200160001515815260200160608152602001600081525090565b6000604051905090565b600080fd5b600080fd5b600073ffffffffffffffffffffffffffffffffffffffff82169050919050565b600061202382611ff8565b9050919050565b61203381612018565b811461203e57600080fd5b50565b6000813590506120508161202a565b92915050565b60006020828403121561206c5761206b611fee565b5b600061207a84828501612041565b91505092915050565b600081519050919050565b600082825260208201905092915050565b6000819050602082019050919050565b6000819050919050565b6120c2816120af565b82525050565b6120d181612018565b82525050565b600081519050919050565b600082825260208201905092915050565b60005b838110156121115780820151818401526020810190506120f6565b60008484015250505050565b6000601f19601f8301169050919050565b6000612139826120d7565b61214381856120e2565b93506121538185602086016120f3565b61215c8161211d565b840191505092915050565b600060e08301600083015161217f60008601826120b9565b50602083015161219260208601826120c8565b5060408301516121a560408601826120b9565b5060608301516121b860608601826120b9565b5060808301516121cb60808601826120b9565b5060a08301516121de60a08601826120b9565b5060c083015184820360c08601526121f6828261212e565b9150508091505092915050565b600061220f8383612167565b905092915050565b6000602082019050919050565b600061222f82612083565b612239818561208e565b93508360208202850161224b8561209f565b8060005b8581101561228757848403895281516122688582612203565b945061227383612217565b925060208a0199505060018101905061224f565b50829750879550505050505092915050565b600060208201905081810360008301526122b38184612224565b905092915050565b6122c4816120af565b81146122cf57600080fd5b50565b6000813590506122e1816122bb565b92915050565b600080fd5b600080fd5b7f4e487b7100000000000000000000000000000000000000000000000000000000600052604160045260246000fd5b6123298261211d565b810181811067ffffffffffffffff82111715612348576123476122f1565b5b80604052505050565b600061235b611fe4565b90506123678282612320565b919050565b600067ffffffffffffffff821115612387576123866122f1565b5b6123908261211d565b9050602081019050919050565b82818337600083830152505050565b60006123bf6123ba8461236c565b612351565b9050828152602081018484840111156123db576123da6122ec565b5b6123e684828561239d565b509392505050565b600082601f830112612403576124026122e7565b5b81356124138482602086016123ac565b91505092915050565b6000806040838503121561243357612432611fee565b5b6000612441858286016122d2565b925050602083013567ffffffffffffffff81111561246257612461611ff3565b5b61246e858286016123ee565b9150509250929050565b60008115159050919050565b61248d81612478565b82525050565b600060e08301600083015184820360008601526124b0828261212e565b915050602083015184820360208601526124ca828261212e565b91505060408301516124df60408601826120b9565b50606083015184820360608601526124f7828261212e565b915050608083015161250c6080860182612484565b5060a083015184820360a0860152612524828261212e565b91505060c083015161253960c08601826120b9565b508091505092915050565b6000602082019050818103600083015261255e8184612493565b905092915050565b600082825260208201905092915050565b6000612582826120d7565b61258c8185612566565b935061259c8185602086016120f3565b6125a58161211d565b840191505092915050565b6125b9816120af565b82525050565b6125c881612478565b82525050565b600060e08201905081810360008301526125e8818a612577565b905081810360208301526125fc8189612577565b905061260b60408301886125b0565b818103606083015261261d8187612577565b905061262c60808301866125bf565b81810360a083015261263e8185612577565b905061264d60c08301846125b0565b98975050505050505050565b600080600080600060a0868803121561267557612674611fee565b5b600086013567ffffffffffffffff81111561269357612692611ff3565b5b61269f888289016123ee565b955050602086013567ffffffffffffffff8111156126c0576126bf611ff3565b5b6126cc888289016123ee565b94505060406126dd888289016122d2565b93505060606126ee888289016122d2565b925050608086013567ffffffffffffffff81111561270f5761270e611ff3565b5b61271b888289016123ee565b9150509295509295909350565b600060208201905061273d60008301846125b0565b92915050565b6000806040838503121561275a57612759611fee565b5b6000612768858286016122d2565b9250506020612779858286016122d2565b9150509250929050565b6000806040838503121561279a57612799611fee565b5b60006127a885828601612041565b92505060206127b9858286016122d2565b9150509250929050565b6127cc81612478565b81146127d757600080fd5b50565b6000813590506127e9816127c3565b92915050565b60008060008060008060c0878903121561280c5761280b611fee565b5b600087013567ffffffffffffffff81111561282a57612829611ff3565b5b61283689828a016123ee565b965050602087013567ffffffffffffffff81111561285757612856611ff3565b5b61286389828a016123ee565b955050604061287489828a016122d2565b945050606087013567ffffffffffffffff81111561289557612894611ff3565b5b6128a189828a016123ee565b93505060806128b289828a016127da565b92505060a087013567ffffffffffffffff8111156128d3576128d2611ff3565b5b6128df89828a016123ee565b9150509295509295509295565b60006020828403121561290257612901611fee565b5b6000612910848285016122d2565b91505092915050565b61292281612018565b82525050565b600060e08201905061293d600083018a6125b0565b61294a6020830189612919565b61295760408301886125b0565b61296460608301876125b0565b61297160808301866125b0565b61297e60a08301856125b0565b81810360c08301526129908184612577565b905098975050505050505050565b600081519050919050565b600082825260208201905092915050565b6000819050602082019050919050565b600060c08301600083015184820360008601526129e7828261212e565b91505060208301518482036020860152612a01828261212e565b9150506040830151612a1660408601826120b9565b506060830151612a2960608601826120b9565b5060808301518482036080860152612a41828261212e565b91505060a0830151612a5660a08601826120c8565b508091505092915050565b6000612a6d83836129ca565b905092915050565b6000602082019050919050565b6000612a8d8261299e565b612a9781856129a9565b935083602082028501612aa9856129ba565b8060005b85811015612ae55784840389528151612ac68582612a61565b9450612ad183612a75565b925060208a01995050600181019050612aad565b50829750879550505050505092915050565b60006020820190508181036000830152612b118184612a82565b905092915050565b600080600080600060a08688031215612b3557612b34611fee565b5b600086013567ffffffffffffffff811115612b5357612b52611ff3565b5b612b5f888289016123ee565b955050602086013567ffffffffffffffff811115612b8057612b7f611ff3565b5b612b8c888289016123ee565b9450506040612b9d888289016122d2565b935050606086013567ffffffffffffffff811115612bbe57612bbd611ff3565b5b612bca888289016123ee565b925050608086013567ffffffffffffffff811115612beb57612bea611ff3565b5b612bf7888289016123ee565b9150509295509295909350565b600060c0820190508181036000830152612c1e8189612577565b90508181036020830152612c328188612577565b9050612c4160408301876125b0565b612c4e60608301866125b0565b8181036080830152612c608185612577565b9050612c6f60a0830184612919565b979650505050505050565b7f4e487b7100000000000000000000000000000000000000000000000000000000600052603260045260246000fd5b7f4e487b7100000000000000000000000000000000000000000000000000000000600052602260045260246000fd5b60006002820490506001821680612cf057607f821691505b602082108103612d0357612d02612ca9565b5b50919050565b7f4f6e6c792073656c6c65722063616e2075706461746520737461747573000000600082015250565b6000612d3f601d83612566565b9150612d4a82612d09565b602082019050919050565b60006020820190508181036000830152612d6e81612d32565b9050919050565b60008190508160005260206000209050919050565b60006020601f8301049050919050565b600082821b905092915050565b600060088302612dd77fffffffffffffffffffffffffffffffffffffffffffffffffffffffffffffffff82612d9a565b612de18683612d9a565b95508019841693508086168417925050509392505050565b6000819050919050565b6000612e1e612e19612e14846120af565b612df9565b6120af565b9050919050565b6000819050919050565b612e3883612e03565b612e4c612e4482612e25565b848454612da7565b825550505050565b600090565b612e61612e54565b612e6c818484612e2f565b505050565b5b81811015612e9057612e85600082612e59565b600181019050612e72565b5050565b601f821115612ed557612ea681612d75565b612eaf84612d8a565b81016020851015612ebe578190505b612ed2612eca85612d8a565b830182612e71565b50505b505050565b600082821c905092915050565b6000612ef860001984600802612eda565b1980831691505092915050565b6000612f118383612ee7565b9150826002028217905092915050565b612f2a826120d7565b67ffffffffffffffff811115612f4357612f426122f1565b5b612f4d8254612cd8565b612f58828285612e94565b600060209050601f831160018114612f8b5760008415612f79578287015190505b612f838582612f05565b865550612feb565b601f198416612f9986612d75565b60005b82811015612fc157848901518255600182019150602085019450602081019050612f9c565b86831015612fde5784890151612fda601f891682612ee7565b8355505b6001600288020188555050505b505050505050565b7f4f6e6c792073656c6c6572732063616e2061646420636f6d6d6f646974696573600082015250565b6000613029602083612566565b915061303482612ff3565b602082019050919050565b600060208201905081810360008301526130588161301c565b9050919050565b7f4e6f7420656e6f7567682073746f636b00000000000000000000000000000000600082015250565b6000613095601083612566565b91506130a08261305f565b602082019050919050565b600060208201905081810360008301526130c481613088565b9050919050565b7f4e487b7100000000000000000000000000000000000000000000000000000000600052601160045260246000fd5b6000613105826120af565b9150613110836120af565b925082820261311e816120af565b91508282048414831517613135576131346130cb565b5b5092915050565b7f536f6c646520696e737566666973616e74000000000000000000000000000000600082015250565b6000613172601183612566565b915061317d8261313c565b602082019050919050565b600060208201905081810360008301526131a181613165565b9050919050565b60006131b3826120af565b91506131be836120af565b92508282039050818111156131d6576131d56130cb565b5b92915050565b7f55736572206e6f74207265676973746572656400000000000000000000000000600082015250565b6000613212601383612566565b915061321d826131dc565b602082019050919050565b6000602082019050818103600083015261324181613205565b9050919050565b7f4d6f6e74616e7420696e76616c69646500000000000000000000000000000000600082015250565b600061327e601083612566565b915061328982613248565b602082019050919050565b600060208201905081810360008301526132ad81613271565b9050919050565b60006132bf826120af565b91506132ca836120af565b92508282019050808211156132e2576132e16130cb565b5b9291505056fea2646970667358221220f96f21a79961ce13c0ee31fd6f3a5c5356f83a72840a5e62f05ad5f62142ad0664736f6c634300081c0033",
  "linkReferences": {},
  "deployedLinkReferences": {}
}