{
  "_format": "hh-sol-artifact-1",
  "contractName": "Ecommerce",
  "sourceName": "contracts/Ecommerce.sol",
  "abi": [
    {
      "anonymous": false,
      "inputs": [
        {
          "indexed": true,
          "internalType": "address",
          "name": "buyer",
          "type": "address"
        },
        {
          "indexed": true,
          "internalType": "uint256",
          "name": "commodityIndex",
          "type": "uint256"
        },
        {
          "indexed": false,
          "internalType": "uint256",
          "name": "quantity",
          "type": "uint256"
        },
        {
          "indexed": false,
          "internalType": "uint256",
          "name": "totalCost",
          "type": "uint256"
        },
        {
          "indexed": false,
          "internalType": "uint256",
          "name": "orderId",
          "type": "uint256"
        }
      ],
      "name": "CommodityPurchased",
      "type": "event"
    },
    {
      "inputs": [
        {
          "internalType": "string",
          "name": "_name",
          "type": "string"
        },
        {
          "internalType": "string",
          "name": "_category",
          "type": "string"
        },
        {
          "internalType": "uint256",
          "name": "_value",
          "type": "uint256"
        },
        {
          "internalType": "uint256",
          "name": "_quantity",
          "type": "uint256"
        },
        {
          "internalType": "string",
          "name": "_company",
          "type": "string"
        },
        {
          "internalType": "string",
          "name": "_image",
          "type": "string"
        }
      ],
      "name": "addCommodity",
      "outputs": [],
      "stateMutability": "nonpayable",
      "type": "function"
    },
    {
      "inputs": [
        {
          "internalType": "uint256",
          "name": "_index",
          "type": "uint256"
        },
        {
          "internalType": "uint256",
          "name": "_quantity",
          "type": "uint256"
        }
      ],
      "name": "buyCommodity",
      "outputs": [],
      "stateMutability": "payable",
      "type": "function"
    },
    {
      "inputs": [
        {
          "internalType": "uint256",
          "name": "",
          "type": "uint256"
        }
      ],
      "name": "commodities",
      "outputs": [
        {
          "internalType": "string",
          "name": "name",
          "type": "string"
        },
        {
          "internalType": "string",
          "name": "category",
          "type": "string"
        },
        {
          "internalType": "uint256",
          "name": "value",
          "type": "uint256"
        },
        {
          "internalType": "uint256",
          "name": "quantity",
          "type": "uint256"
        },
        {
          "internalType": "string",
          "name": "company",
          "type": "string"
        },
        {
          "internalType": "address",
          "name": "seller",
          "type": "address"
        },
        {
          "internalType": "string",
          "name": "image",
          "type": "string"
        }
      ],
      "stateMutability": "view",
      "type": "function"
    },
    {
      "inputs": [],
      "name": "deposit",
      "outputs": [],
      "stateMutability": "payable",
      "type": "function"
    },
    {
      "inputs": [
        {
          "internalType": "address",
          "name": "_user",
          "type": "address"
        }
      ],
      "name": "getBalance",
      "outputs": [
        {
          "internalType": "uint256",
          "name": "",
          "type": "uint256"
        }
      ],
      "stateMutability": "view",
      "type": "function"
    },
    {
      "inputs": [],
      "name": "getCommodities",
      "outputs": [
        {
          "components": [
            {
              "internalType": "string",
              "name": "name",
              "type": "string"
            },
            {
              "internalType": "string",
              "name": "category",
              "type": "string"
            },
            {
              "internalType": "uint256",
              "name": "value",
              "type": "uint256"
            },
            {
              "internalType": "uint256",
              "name": "quantity",
              "type": "uint256"
            },
            {
              "internalType": "string",
              "name": "company",
              "type": "string"
            },
            {
              "internalType": "address",
              "name": "seller",
              "type": "address"
            },
            {
              "internalType": "string",
              "name": "image",
              "type": "string"
            }
          ],
          "internalType": "struct Ecommerce.Commodity[]",
          "name": "",
          "type": "tuple[]"
        }
      ],
      "stateMutability": "view",
      "type": "function"
    },
    {
      "inputs": [
        {
          "internalType": "address",
          "name": "_user",
          "type": "address"
        }
      ],
      "name": "getEthBalance",
      "outputs": [
        {
          "internalType": "uint256",
          "name": "",
          "type": "uint256"
        }
      ],
      "stateMutability": "view",
      "type": "function"
    },
    {
      "inputs": [],
      "name": "getMyProfile",
      "outputs": [
        {
          "components": [
            {
              "internalType": "string",
              "name": "firstName",
              "type": "string"
            },
            {
              "internalType": "string",
              "name": "lastName",
              "type": "string"
            },
            {
              "internalType": "uint256",
              "name": "age",
              "type": "uint256"
            },
            {
              "internalType": "string",
              "name": "gender",
              "type": "string"
            },
            {
              "internalType": "bool",
              "name": "isSeller",
              "type": "bool"
            },
            {
              "internalType": "string",
              "name": "email",
              "type": "string"
            },
            {
              "internalType": "uint256",
              "name": "balance",
              "type": "uint256"
            },
            {
              "internalType": "string",
              "name": "image",
              "type": "string"
            }
          ],
          "internalType": "struct Ecommerce.User",
          "name": "",
          "type": "tuple"
        }
      ],
      "stateMutability": "view",
      "type": "function"
    },
    {
      "inputs": [],
      "name": "getOrders",
      "outputs": [
        {
          "components": [
            {
              "internalType": "uint256",
              "name": "id",
              "type": "uint256"
            },
            {
              "internalType": "address",
              "name": "buyer",
              "type": "address"
            },
            {
              "internalType": "uint256",
              "name": "commodityId",
              "type": "uint256"
            },
            {
              "internalType": "uint256",
              "name": "quantity",
              "type": "uint256"
            },
            {
              "internalType": "uint256",
              "name": "totalPrice",
              "type": "uint256"
            },
            {
              "internalType": "uint256",
              "name": "timestamp",
              "type": "uint256"
            },
            {
              "internalType": "string",
              "name": "status",
              "type": "string"
            }
          ],
          "internalType": "struct Ecommerce.Order[]",
          "name": "",
          "type": "tuple[]"
        }
      ],
      "stateMutability": "view",
      "type": "function"
    },
    {
      "inputs": [
        {
          "internalType": "address",
          "name": "_user",
          "type": "address"
        }
      ],
      "name": "getOrdersByUser",
      "outputs": [
        {
          "components": [
            {
              "internalType": "uint256",
              "name": "id",
              "type": "uint256"
            },
            {
              "internalType": "address",
              "name": "buyer",
              "type": "address"
            },
            {
              "internalType": "uint256",
              "name": "commodityId",
              "type": "uint256"
            },
            {
              "internalType": "uint256",
              "name": "quantity",
              "type": "uint256"
            },
            {
              "internalType": "uint256",
              "name": "totalPrice",
              "type": "uint256"
            },
            {
              "internalType": "uint256",
              "name": "timestamp",
              "type": "uint256"
            },
            {
              "internalType": "string",
              "name": "status",
              "type": "string"
            }
          ],
          "internalType": "struct Ecommerce.Order[]",
          "name": "",
          "type": "tuple[]"
        }
      ],
      "stateMutability": "view",
      "type": "function"
    },
    {
      "inputs": [
        {
          "internalType": "address",
          "name": "_userAddress",
          "type": "address"
        }
      ],
      "name": "getUserById",
      "outputs": [
        {
          "internalType": "string",
          "name": "firstName",
          "type": "string"
        },
        {
          "internalType": "string",
          "name": "lastName",
          "type": "string"
        },
        {
          "internalType": "uint256",
          "name": "age",
          "type": "uint256"
        },
        {
          "internalType": "string",
          "name": "gender",
          "type": "string"
        },
        {
          "internalType": "bool",
          "name": "isSeller",
          "type": "bool"
        },
        {
          "internalType": "string",
          "name": "email",
          "type": "string"
        },
        {
          "internalType": "uint256",
          "name": "balance",
          "type": "uint256"
        },
        {
          "internalType": "string",
          "name": "image",
          "type": "string"
        }
      ],
      "stateMutability": "view",
      "type": "function"
    },
    {
      "inputs": [
        {
          "internalType": "uint256",
          "name": "",
          "type": "uint256"
        }
      ],
      "name": "orders",
      "outputs": [
        {
          "internalType": "uint256",
          "name": "id",
          "type": "uint256"
        },
        {
          "internalType": "address",
          "name": "buyer",
          "type": "address"
        },
        {
          "internalType": "uint256",
          "name": "commodityId",
          "type": "uint256"
        },
        {
          "internalType": "uint256",
          "name": "quantity",
          "type": "uint256"
        },
        {
          "internalType": "uint256",
          "name": "totalPrice",
          "type": "uint256"
        },
        {
          "internalType": "uint256",
          "name": "timestamp",
          "type": "uint256"
        },
        {
          "internalType": "string",
          "name": "status",
          "type": "string"
        }
      ],
      "stateMutability": "view",
      "type": "function"
    },
    {
      "inputs": [
        {
          "internalType": "string",
          "name": "_firstName",
          "type": "string"
        },
        {
          "internalType": "string",
          "name": "_lastName",
          "type": "string"
        },
        {
          "internalType": "uint256",
          "name": "_age",
          "type": "uint256"
        },
        {
          "internalType": "string",
          "name": "_gender",
          "type": "string"
        },
        {
          "internalType": "bool",
          "name": "_isSeller",
          "type": "bool"
        },
        {
          "internalType": "string",
          "name": "_email",
          "type": "string"
        },
        {
          "internalType": "string",
          "name": "_image",
          "type": "string"
        }
      ],
      "name": "register",
      "outputs": [],
      "stateMutability": "nonpayable",
      "type": "function"
    },
    {
      "inputs": [
        {
          "internalType": "uint256",
          "name": "_orderId",
          "type": "uint256"
        },
        {
          "internalType": "string",
          "name": "_status",
          "type": "string"
        }
      ],
      "name": "updateOrderStatus",
      "outputs": [],
      "stateMutability": "nonpayable",
      "type": "function"
    },
    {
      "inputs": [
        {
          "internalType": "string",
          "name": "_firstName",
          "type": "string"
        },
        {
          "internalType": "string",
          "name": "_lastName",
          "type": "string"
        },
        {
          "internalType": "uint256",
          "name": "_age",
          "type": "uint256"
        },
        {
          "internalType": "string",
          "name": "_gender",
          "type": "string"
        },
        {
          "internalType": "string",
          "name": "_email",
          "type": "string"
        },
        {
          "internalType": "string",
          "name": "_image",
          "type": "string"
        }
      ],
      "name": "updateProfile",
      "outputs": [],
      "stateMutability": "nonpayable",
      "type": "function"
    },
    {
      "inputs": [
        {
          "internalType": "address",
          "name": "",
          "type": "address"
        },
        {
          "internalType": "uint256",
          "name": "",
          "type": "uint256"
        }
      ],
      "name": "userOrders",
      "outputs": [
        {
          "internalType": "uint256",
          "name": "",
          "type": "uint256"
        }
      ],
      "stateMutability": "view",
      "type": "function"
    },
    {
      "inputs": [
        {
          "internalType": "address",
          "name": "",
          "type": "address"
        }
      ],
      "name": "users",
      "outputs": [
        {
          "internalType": "string",
          "name": "firstName",
          "type": "string"
        },
        {
          "internalType": "string",
          "name": "lastName",
          "type": "string"
        },
        {
          "internalType": "uint256",
          "name": "age",
          "type": "uint256"
        },
        {
          "internalType": "string",
          "name": "gender",
          "type": "string"
        },
        {
          "internalType": "bool",
          "name": "isSeller",
          "type": "bool"
        },
        {
          "internalType": "string",
          "name": "email",
          "type": "string"
        },
        {
          "internalType": "uint256",
          "name": "balance",
          "type": "uint256"
        },
        {
          "internalType": "string",
          "name": "image",
          "type": "string"
        }
      ],
      "stateMutability": "view",
      "type": "function"
    }
  ],
  "bytecode": "0x6080604052348015600f57600080fd5b506137798061001f6000396000f3fe6080604052600436106100fe5760003560e01c80634d2301cc11610095578063a87430ba11610064578063a87430ba14610357578063b42537691461039b578063d0e30db0146103c6578063f8b2cb4f146103d0578063fcfd84e21461040d576100fe565b80634d2301cc1461027e5780638466a262146102bb578063856652e9146102d7578063a85c38ef14610314576100fe565b806328786d55116100d157806328786d55146101d85780632e2dc43e1461020157806344143b811461022c578063451acba914610255576100fe565b806318f1c70914610103578063205fdde61461014057806321527e50146101695780632301ab1e14610194575b600080fd5b34801561010f57600080fd5b5061012a6004803603810190610125919061238d565b610450565b60405161013791906125d0565b60405180910390f35b34801561014c57600080fd5b5061016760048036038101906101629190612753565b6106e0565b005b34801561017557600080fd5b5061017e6107da565b60405161018b9190612896565b60405180910390f35b3480156101a057600080fd5b506101bb60048036038101906101b6919061238d565b610b3a565b6040516101cf989796959493929190612920565b60405180910390f35b3480156101e457600080fd5b506101ff60048036038101906101fa91906129ed565b610e93565b005b34801561020d57600080fd5b50610216610fbc565b60405161022391906125d0565b60405180910390f35b34801561023857600080fd5b50610253600480360381019061024e9190612b1b565b611135565b005b34801561026157600080fd5b5061027c60048036038101906102779190612c34565b611236565b005b34801561028a57600080fd5b506102a560048036038101906102a0919061238d565b6113f5565b6040516102b29190612d31565b60405180910390f35b6102d560048036038101906102d09190612d4c565b611416565b005b3480156102e357600080fd5b506102fe60048036038101906102f99190612d8c565b6117ce565b60405161030b9190612d31565b60405180910390f35b34801561032057600080fd5b5061033b60048036038101906103369190612dcc565b6117ff565b60405161034e9796959493929190612e08565b60405180910390f35b34801561036357600080fd5b5061037e6004803603810190610379919061238d565b6118f9565b604051610392989796959493929190612920565b60405180910390f35b3480156103a757600080fd5b506103b0611bf6565b6040516103bd9190612ff1565b60405180910390f35b6103ce611f07565b005b3480156103dc57600080fd5b506103f760048036038101906103f2919061238d565b611fa4565b6040516104049190612d31565b60405180910390f35b34801561041957600080fd5b50610434600480360381019061042f9190612dcc565b611fef565b6040516104479796959493929190613013565b60405180910390f35b60606000600360008473ffffffffffffffffffffffffffffffffffffffff1673ffffffffffffffffffffffffffffffffffffffff1681526020019081526020016000208054806020026020016040519081016040528092919081815260200182805480156104dd57602002820191906000526020600020905b8154815260200190600101908083116104c9575b505050505090506000815167ffffffffffffffff81111561050157610500612628565b5b60405190808252806020026020018201604052801561053a57816020015b610527612281565b81526020019060019003908161051f5790505b50905060005b82518110156106d557600283828151811061055e5761055d61309e565b5b6020026020010151815481106105775761057661309e565b5b90600052602060002090600702016040518060e0016040529081600082015481526020016001820160009054906101000a900473ffffffffffffffffffffffffffffffffffffffff1673ffffffffffffffffffffffffffffffffffffffff1673ffffffffffffffffffffffffffffffffffffffff16815260200160028201548152602001600382015481526020016004820154815260200160058201548152602001600682018054610628906130fc565b80601f0160208091040260200160405190810160405280929190818152602001828054610654906130fc565b80156106a15780601f10610676576101008083540402835291602001916106a1565b820191906000526020600020905b81548152906001019060200180831161068457829003601f168201915b5050505050815250508282815181106106bd576106bc61309e565b5b60200260200101819052508080600101915050610540565b508092505050919050565b6000600283815481106106f6576106f561309e565b5b90600052602060002090600702019050600060018260020154815481106107205761071f61309e565b5b906000526020600020906007020190508060050160009054906101000a900473ffffffffffffffffffffffffffffffffffffffff1673ffffffffffffffffffffffffffffffffffffffff163373ffffffffffffffffffffffffffffffffffffffff16146107c2576040517f08c379a00000000000000000000000000000000000000000000000000000000081526004016107b990613179565b60405180910390fd5b828260060190816107d39190613345565b5050505050565b6107e26122d4565b6000803373ffffffffffffffffffffffffffffffffffffffff1673ffffffffffffffffffffffffffffffffffffffff1681526020019081526020016000206040518061010001604052908160008201805461083c906130fc565b80601f0160208091040260200160405190810160405280929190818152602001828054610868906130fc565b80156108b55780601f1061088a576101008083540402835291602001916108b5565b820191906000526020600020905b81548152906001019060200180831161089857829003601f168201915b505050505081526020016001820180546108ce906130fc565b80601f01602080910402602001604051908101604052809291908181526020018280546108fa906130fc565b80156109475780601f1061091c57610100808354040283529160200191610947565b820191906000526020600020905b81548152906001019060200180831161092a57829003601f168201915b505050505081526020016002820154815260200160038201805461096a906130fc565b80601f0160208091040260200160405190810160405280929190818152602001828054610996906130fc565b80156109e35780601f106109b8576101008083540402835291602001916109e3565b820191906000526020600020905b8154815290600101906020018083116109c657829003601f168201915b505050505081526020016004820160009054906101000a900460ff16151515158152602001600582018054610a17906130fc565b80601f0160208091040260200160405190810160405280929190818152602001828054610a43906130fc565b8015610a905780601f10610a6557610100808354040283529160200191610a90565b820191906000526020600020905b815481529060010190602001808311610a7357829003601f168201915b5050505050815260200160068201548152602001600782018054610ab3906130fc565b80601f0160208091040260200160405190810160405280929190818152602001828054610adf906130fc565b8015610b2c5780601f10610b0157610100808354040283529160200191610b2c565b820191906000526020600020905b815481529060010190602001808311610b0f57829003601f168201915b505050505081525050905090565b60608060006060600060606000606060008060008b73ffffffffffffffffffffffffffffffffffffffff1673ffffffffffffffffffffffffffffffffffffffff168152602001908152602001600020905080600001816001018260020154836003018460040160009054906101000a900460ff1685600501866006015487600701878054610bc7906130fc565b80601f0160208091040260200160405190810160405280929190818152602001828054610bf3906130fc565b8015610c405780601f10610c1557610100808354040283529160200191610c40565b820191906000526020600020905b815481529060010190602001808311610c2357829003601f168201915b50505050509750868054610c53906130fc565b80601f0160208091040260200160405190810160405280929190818152602001828054610c7f906130fc565b8015610ccc5780601f10610ca157610100808354040283529160200191610ccc565b820191906000526020600020905b815481529060010190602001808311610caf57829003601f168201915b50505050509650848054610cdf906130fc565b80601f0160208091040260200160405190810160405280929190818152602001828054610d0b906130fc565b8015610d585780601f10610d2d57610100808354040283529160200191610d58565b820191906000526020600020905b815481529060010190602001808311610d3b57829003601f168201915b50505050509450828054610d6b906130fc565b80601f0160208091040260200160405190810160405280929190818152602001828054610d97906130fc565b8015610de45780601f10610db957610100808354040283529160200191610de4565b820191906000526020600020905b815481529060010190602001808311610dc757829003601f168201915b50505050509250808054610df7906130fc565b80601f0160208091040260200160405190810160405280929190818152602001828054610e23906130fc565b8015610e705780601f10610e4557610100808354040283529160200191610e70565b820191906000526020600020905b815481529060010190602001808311610e5357829003601f168201915b505050505090509850985098509850985098509850985050919395975091939597565b604051806101000160405280888152602001878152602001868152602001858152602001841515815260200183815260200160008152602001828152506000803373ffffffffffffffffffffffffffffffffffffffff1673ffffffffffffffffffffffffffffffffffffffff1681526020019081526020016000206000820151816000019081610f239190613345565b506020820151816001019081610f399190613345565b50604082015181600201556060820151816003019081610f599190613345565b5060808201518160040160006101000a81548160ff02191690831515021790555060a0820151816005019081610f8f9190613345565b5060c0820151816006015560e0820151816007019081610faf9190613345565b5090505050505050505050565b60606002805480602002602001604051908101604052809291908181526020016000905b8282101561112c57838290600052602060002090600702016040518060e0016040529081600082015481526020016001820160009054906101000a900473ffffffffffffffffffffffffffffffffffffffff1673ffffffffffffffffffffffffffffffffffffffff1673ffffffffffffffffffffffffffffffffffffffff1681526020016002820154815260200160038201548152602001600482015481526020016005820154815260200160068201805461109b906130fc565b80601f01602080910402602001604051908101604052809291908181526020018280546110c7906130fc565b80156111145780601f106110e957610100808354040283529160200191611114565b820191906000526020600020905b8154815290600101906020018083116110f757829003601f168201915b50505050508152505081526020019060010190610fe0565b50505050905090565b60008060003373ffffffffffffffffffffffffffffffffffffffff1673ffffffffffffffffffffffffffffffffffffffff16815260200190815260200160002090506000816000018054611188906130fc565b9050116111ca576040517f08c379a00000000000000000000000000000000000000000000000000000000081526004016111c190613463565b60405180910390fd5b868160000190816111db9190613345565b50858160010190816111ed9190613345565b50848160020181905550838160030190816112089190613345565b508281600501908161121a9190613345565b508181600701908161122c9190613345565b5050505050505050565b6000803373ffffffffffffffffffffffffffffffffffffffff1673ffffffffffffffffffffffffffffffffffffffff16815260200190815260200160002060040160009054906101000a900460ff166112c4576040517f08c379a00000000000000000000000000000000000000000000000000000000081526004016112bb906134cf565b60405180910390fd5b60016040518060e001604052808881526020018781526020018681526020018581526020018481526020013373ffffffffffffffffffffffffffffffffffffffff168152602001838152509080600181540180825580915050600190039060005260206000209060070201600090919091909150600082015181600001908161134d9190613345565b5060208201518160010190816113639190613345565b506040820151816002015560608201518160030155608082015181600401908161138d9190613345565b5060a08201518160050160006101000a81548173ffffffffffffffffffffffffffffffffffffffff021916908373ffffffffffffffffffffffffffffffffffffffff16021790555060c08201518160060190816113ea9190613345565b505050505050505050565b60008173ffffffffffffffffffffffffffffffffffffffff16319050919050565b60006001838154811061142c5761142b61309e565b5b906000526020600020906007020190508181600301541015611483576040517f08c379a000000000000000000000000000000000000000000000000000000000815260040161147a9061353b565b60405180910390fd5b600082633b9aca00836002015461149a919061358a565b6114a4919061358a565b9050803410156114e9576040517f08c379a00000000000000000000000000000000000000000000000000000000081526004016114e090613618565b60405180910390fd5b828260030160008282546114fd9190613638565b925050819055508160050160009054906101000a900473ffffffffffffffffffffffffffffffffffffffff1673ffffffffffffffffffffffffffffffffffffffff166108fc829081150290604051600060405180830381858888f1935050505015801561156e573d6000803e3d6000fd5b50803411156115ca573373ffffffffffffffffffffffffffffffffffffffff166108fc823461159d9190613638565b9081150290604051600060405180830381858888f193505050501580156115c8573d6000803e3d6000fd5b505b6000600280549050905060026040518060e001604052808381526020013373ffffffffffffffffffffffffffffffffffffffff1681526020018781526020018681526020018481526020014281526020016040518060400160405280600781526020017f50656e64696e670000000000000000000000000000000000000000000000000081525081525090806001815401808255809150506001900390600052602060002090600702016000909190919091506000820151816000015560208201518160010160006101000a81548173ffffffffffffffffffffffffffffffffffffffff021916908373ffffffffffffffffffffffffffffffffffffffff16021790555060408201518160020155606082015181600301556080820151816004015560a0820151816005015560c082015181600601908161170b9190613345565b505050600360003373ffffffffffffffffffffffffffffffffffffffff1673ffffffffffffffffffffffffffffffffffffffff168152602001908152602001600020819080600181540180825580915050600190039060005260206000200160009091909190915055843373ffffffffffffffffffffffffffffffffffffffff167fde901a5326c401495587fe4218b72c663e030c43ae4a93f8f741ee2016e60c138685856040516117bf9392919061366c565b60405180910390a35050505050565b600360205281600052604060002081815481106117ea57600080fd5b90600052602060002001600091509150505481565b6002818154811061180f57600080fd5b90600052602060002090600702016000915090508060000154908060010160009054906101000a900473ffffffffffffffffffffffffffffffffffffffff1690806002015490806003015490806004015490806005015490806006018054611876906130fc565b80601f01602080910402602001604051908101604052809291908181526020018280546118a2906130fc565b80156118ef5780601f106118c4576101008083540402835291602001916118ef565b820191906000526020600020905b8154815290600101906020018083116118d257829003601f168201915b5050505050905087565b600060205280600052604060002060009150905080600001805461191c906130fc565b80601f0160208091040260200160405190810160405280929190818152602001828054611948906130fc565b80156119955780601f1061196a57610100808354040283529160200191611995565b820191906000526020600020905b81548152906001019060200180831161197857829003601f168201915b5050505050908060010180546119aa906130fc565b80601f01602080910402602001604051908101604052809291908181526020018280546119d6906130fc565b8015611a235780601f106119f857610100808354040283529160200191611a23565b820191906000526020600020905b815481529060010190602001808311611a0657829003601f168201915b505050505090806002015490806003018054611a3e906130fc565b80601f0160208091040260200160405190810160405280929190818152602001828054611a6a906130fc565b8015611ab75780601f10611a8c57610100808354040283529160200191611ab7565b820191906000526020600020905b815481529060010190602001808311611a9a57829003601f168201915b5050505050908060040160009054906101000a900460ff1690806005018054611adf906130fc565b80601f0160208091040260200160405190810160405280929190818152602001828054611b0b906130fc565b8015611b585780601f10611b2d57610100808354040283529160200191611b58565b820191906000526020600020905b815481529060010190602001808311611b3b57829003601f168201915b505050505090806006015490806007018054611b73906130fc565b80601f0160208091040260200160405190810160405280929190818152602001828054611b9f906130fc565b8015611bec5780601f10611bc157610100808354040283529160200191611bec565b820191906000526020600020905b815481529060010190602001808311611bcf57829003601f168201915b5050505050905088565b60606001805480602002602001604051908101604052809291908181526020016000905b82821015611efe57838290600052602060002090600702016040518060e0016040529081600082018054611c4d906130fc565b80601f0160208091040260200160405190810160405280929190818152602001828054611c79906130fc565b8015611cc65780601f10611c9b57610100808354040283529160200191611cc6565b820191906000526020600020905b815481529060010190602001808311611ca957829003601f168201915b50505050508152602001600182018054611cdf906130fc565b80601f0160208091040260200160405190810160405280929190818152602001828054611d0b906130fc565b8015611d585780601f10611d2d57610100808354040283529160200191611d58565b820191906000526020600020905b815481529060010190602001808311611d3b57829003601f168201915b505050505081526020016002820154815260200160038201548152602001600482018054611d85906130fc565b80601f0160208091040260200160405190810160405280929190818152602001828054611db1906130fc565b8015611dfe5780601f10611dd357610100808354040283529160200191611dfe565b820191906000526020600020905b815481529060010190602001808311611de157829003601f168201915b505050505081526020016005820160009054906101000a900473ffffffffffffffffffffffffffffffffffffffff1673ffffffffffffffffffffffffffffffffffffffff1673ffffffffffffffffffffffffffffffffffffffff168152602001600682018054611e6d906130fc565b80601f0160208091040260200160405190810160405280929190818152602001828054611e99906130fc565b8015611ee65780601f10611ebb57610100808354040283529160200191611ee6565b820191906000526020600020905b815481529060010190602001808311611ec957829003601f168201915b50505050508152505081526020019060010190611c1a565b50505050905090565b60003411611f4a576040517f08c379a0000000000000000000000000000000000000000000000000000000008152600401611f41906136ef565b60405180910390fd5b346000803373ffffffffffffffffffffffffffffffffffffffff1673ffffffffffffffffffffffffffffffffffffffff1681526020019081526020016000206006016000828254611f9b919061370f565b92505081905550565b60008060008373ffffffffffffffffffffffffffffffffffffffff1673ffffffffffffffffffffffffffffffffffffffff168152602001908152602001600020600601549050919050565b60018181548110611fff57600080fd5b9060005260206000209060070201600091509050806000018054612022906130fc565b80601f016020809104026020016040519081016040528092919081815260200182805461204e906130fc565b801561209b5780601f106120705761010080835404028352916020019161209b565b820191906000526020600020905b81548152906001019060200180831161207e57829003601f168201915b5050505050908060010180546120b0906130fc565b80601f01602080910402602001604051908101604052809291908181526020018280546120dc906130fc565b80156121295780601f106120fe57610100808354040283529160200191612129565b820191906000526020600020905b81548152906001019060200180831161210c57829003601f168201915b50505050509080600201549080600301549080600401805461214a906130fc565b80601f0160208091040260200160405190810160405280929190818152602001828054612176906130fc565b80156121c35780601f10612198576101008083540402835291602001916121c3565b820191906000526020600020905b8154815290600101906020018083116121a657829003601f168201915b5050505050908060050160009054906101000a900473ffffffffffffffffffffffffffffffffffffffff16908060060180546121fe906130fc565b80601f016020809104026020016040519081016040528092919081815260200182805461222a906130fc565b80156122775780601f1061224c57610100808354040283529160200191612277565b820191906000526020600020905b81548152906001019060200180831161225a57829003601f168201915b5050505050905087565b6040518060e0016040528060008152602001600073ffffffffffffffffffffffffffffffffffffffff16815260200160008152602001600081526020016000815260200160008152602001606081525090565b604051806101000160405280606081526020016060815260200160008152602001606081526020016000151581526020016060815260200160008152602001606081525090565b6000604051905090565b600080fd5b600080fd5b600073ffffffffffffffffffffffffffffffffffffffff82169050919050565b600061235a8261232f565b9050919050565b61236a8161234f565b811461237557600080fd5b50565b60008135905061238781612361565b92915050565b6000602082840312156123a3576123a2612325565b5b60006123b184828501612378565b91505092915050565b600081519050919050565b600082825260208201905092915050565b6000819050602082019050919050565b6000819050919050565b6123f9816123e6565b82525050565b6124088161234f565b82525050565b600081519050919050565b600082825260208201905092915050565b60005b8381101561244857808201518184015260208101905061242d565b60008484015250505050565b6000601f19601f8301169050919050565b60006124708261240e565b61247a8185612419565b935061248a81856020860161242a565b61249381612454565b840191505092915050565b600060e0830160008301516124b660008601826123f0565b5060208301516124c960208601826123ff565b5060408301516124dc60408601826123f0565b5060608301516124ef60608601826123f0565b50608083015161250260808601826123f0565b5060a083015161251560a08601826123f0565b5060c083015184820360c086015261252d8282612465565b9150508091505092915050565b6000612546838361249e565b905092915050565b6000602082019050919050565b6000612566826123ba565b61257081856123c5565b935083602082028501612582856123d6565b8060005b858110156125be578484038952815161259f858261253a565b94506125aa8361254e565b925060208a01995050600181019050612586565b50829750879550505050505092915050565b600060208201905081810360008301526125ea818461255b565b905092915050565b6125fb816123e6565b811461260657600080fd5b50565b600081359050612618816125f2565b92915050565b600080fd5b600080fd5b7f4e487b7100000000000000000000000000000000000000000000000000000000600052604160045260246000fd5b61266082612454565b810181811067ffffffffffffffff8211171561267f5761267e612628565b5b80604052505050565b600061269261231b565b905061269e8282612657565b919050565b600067ffffffffffffffff8211156126be576126bd612628565b5b6126c782612454565b9050602081019050919050565b82818337600083830152505050565b60006126f66126f1846126a3565b612688565b90508281526020810184848401111561271257612711612623565b5b61271d8482856126d4565b509392505050565b600082601f83011261273a5761273961261e565b5b813561274a8482602086016126e3565b91505092915050565b6000806040838503121561276a57612769612325565b5b600061277885828601612609565b925050602083013567ffffffffffffffff8111156127995761279861232a565b5b6127a585828601612725565b9150509250929050565b60008115159050919050565b6127c4816127af565b82525050565b60006101008301600083015184820360008601526127e88282612465565b915050602083015184820360208601526128028282612465565b915050604083015161281760408601826123f0565b506060830151848203606086015261282f8282612465565b915050608083015161284460808601826127bb565b5060a083015184820360a086015261285c8282612465565b91505060c083015161287160c08601826123f0565b5060e083015184820360e08601526128898282612465565b9150508091505092915050565b600060208201905081810360008301526128b081846127ca565b905092915050565b600082825260208201905092915050565b60006128d48261240e565b6128de81856128b8565b93506128ee81856020860161242a565b6128f781612454565b840191505092915050565b61290b816123e6565b82525050565b61291a816127af565b82525050565b600061010082019050818103600083015261293b818b6128c9565b9050818103602083015261294f818a6128c9565b905061295e6040830189612902565b818103606083015261297081886128c9565b905061297f6080830187612911565b81810360a083015261299181866128c9565b90506129a060c0830185612902565b81810360e08301526129b281846128c9565b90509998505050505050505050565b6129ca816127af565b81146129d557600080fd5b50565b6000813590506129e7816129c1565b92915050565b600080600080600080600060e0888a031215612a0c57612a0b612325565b5b600088013567ffffffffffffffff811115612a2a57612a2961232a565b5b612a368a828b01612725565b975050602088013567ffffffffffffffff811115612a5757612a5661232a565b5b612a638a828b01612725565b9650506040612a748a828b01612609565b955050606088013567ffffffffffffffff811115612a9557612a9461232a565b5b612aa18a828b01612725565b9450506080612ab28a828b016129d8565b93505060a088013567ffffffffffffffff811115612ad357612ad261232a565b5b612adf8a828b01612725565b92505060c088013567ffffffffffffffff811115612b0057612aff61232a565b5b612b0c8a828b01612725565b91505092959891949750929550565b60008060008060008060c08789031215612b3857612b37612325565b5b600087013567ffffffffffffffff811115612b5657612b5561232a565b5b612b6289828a01612725565b965050602087013567ffffffffffffffff811115612b8357612b8261232a565b5b612b8f89828a01612725565b9550506040612ba089828a01612609565b945050606087013567ffffffffffffffff811115612bc157612bc061232a565b5b612bcd89828a01612725565b935050608087013567ffffffffffffffff811115612bee57612bed61232a565b5b612bfa89828a01612725565b92505060a087013567ffffffffffffffff811115612c1b57612c1a61232a565b5b612c2789828a01612725565b9150509295509295509295565b60008060008060008060c08789031215612c5157612c50612325565b5b600087013567ffffffffffffffff811115612c6f57612c6e61232a565b5b612c7b89828a01612725565b965050602087013567ffffffffffffffff811115612c9c57612c9b61232a565b5b612ca889828a01612725565b9550506040612cb989828a01612609565b9450506060612cca89828a01612609565b935050608087013567ffffffffffffffff811115612ceb57612cea61232a565b5b612cf789828a01612725565b92505060a087013567ffffffffffffffff811115612d1857612d1761232a565b5b612d2489828a01612725565b9150509295509295509295565b6000602082019050612d466000830184612902565b92915050565b60008060408385031215612d6357612d62612325565b5b6000612d7185828601612609565b9250506020612d8285828601612609565b9150509250929050565b60008060408385031215612da357612da2612325565b5b6000612db185828601612378565b9250506020612dc285828601612609565b9150509250929050565b600060208284031215612de257612de1612325565b5b6000612df084828501612609565b91505092915050565b612e028161234f565b82525050565b600060e082019050612e1d600083018a612902565b612e2a6020830189612df9565b612e376040830188612902565b612e446060830187612902565b612e516080830186612902565b612e5e60a0830185612902565b81810360c0830152612e7081846128c9565b905098975050505050505050565b600081519050919050565b600082825260208201905092915050565b6000819050602082019050919050565b600060e0830160008301518482036000860152612ec78282612465565b91505060208301518482036020860152612ee18282612465565b9150506040830151612ef660408601826123f0565b506060830151612f0960608601826123f0565b5060808301518482036080860152612f218282612465565b91505060a0830151612f3660a08601826123ff565b5060c083015184820360c0860152612f4e8282612465565b9150508091505092915050565b6000612f678383612eaa565b905092915050565b6000602082019050919050565b6000612f8782612e7e565b612f918185612e89565b935083602082028501612fa385612e9a565b8060005b85811015612fdf5784840389528151612fc08582612f5b565b9450612fcb83612f6f565b925060208a01995050600181019050612fa7565b50829750879550505050505092915050565b6000602082019050818103600083015261300b8184612f7c565b905092915050565b600060e082019050818103600083015261302d818a6128c9565b9050818103602083015261304181896128c9565b90506130506040830188612902565b61305d6060830187612902565b818103608083015261306f81866128c9565b905061307e60a0830185612df9565b81810360c083015261309081846128c9565b905098975050505050505050565b7f4e487b7100000000000000000000000000000000000000000000000000000000600052603260045260246000fd5b7f4e487b7100000000000000000000000000000000000000000000000000000000600052602260045260246000fd5b6000600282049050600182168061311457607f821691505b602082108103613127576131266130cd565b5b50919050565b7f4f6e6c792073656c6c65722063616e2075706461746520737461747573000000600082015250565b6000613163601d836128b8565b915061316e8261312d565b602082019050919050565b6000602082019050818103600083015261319281613156565b9050919050565b60008190508160005260206000209050919050565b60006020601f8301049050919050565b600082821b905092915050565b6000600883026131fb7fffffffffffffffffffffffffffffffffffffffffffffffffffffffffffffffff826131be565b61320586836131be565b95508019841693508086168417925050509392505050565b6000819050919050565b600061324261323d613238846123e6565b61321d565b6123e6565b9050919050565b6000819050919050565b61325c83613227565b61327061326882613249565b8484546131cb565b825550505050565b600090565b613285613278565b613290818484613253565b505050565b5b818110156132b4576132a960008261327d565b600181019050613296565b5050565b601f8211156132f9576132ca81613199565b6132d3846131ae565b810160208510156132e2578190505b6132f66132ee856131ae565b830182613295565b50505b505050565b600082821c905092915050565b600061331c600019846008026132fe565b1980831691505092915050565b6000613335838361330b565b9150826002028217905092915050565b61334e8261240e565b67ffffffffffffffff81111561336757613366612628565b5b61337182546130fc565b61337c8282856132b8565b600060209050601f8311600181146133af576000841561339d578287015190505b6133a78582613329565b86555061340f565b601f1984166133bd86613199565b60005b828110156133e5578489015182556001820191506020850194506020810190506133c0565b8683101561340257848901516133fe601f89168261330b565b8355505b6001600288020188555050505b505050505050565b7f55736572206e6f74207265676973746572656400000000000000000000000000600082015250565b600061344d6013836128b8565b915061345882613417565b602082019050919050565b6000602082019050818103600083015261347c81613440565b9050919050565b7f4f6e6c792073656c6c6572732063616e2061646420636f6d6d6f646974696573600082015250565b60006134b96020836128b8565b91506134c482613483565b602082019050919050565b600060208201905081810360008301526134e8816134ac565b9050919050565b7f4e6f7420656e6f7567682073746f636b00000000000000000000000000000000600082015250565b60006135256010836128b8565b9150613530826134ef565b602082019050919050565b6000602082019050818103600083015261355481613518565b9050919050565b7f4e487b7100000000000000000000000000000000000000000000000000000000600052601160045260246000fd5b6000613595826123e6565b91506135a0836123e6565b92508282026135ae816123e6565b915082820484148315176135c5576135c461355b565b5b5092915050565b7f506169656d656e7420696e737566666973616e74000000000000000000000000600082015250565b60006136026014836128b8565b915061360d826135cc565b602082019050919050565b60006020820190508181036000830152613631816135f5565b9050919050565b6000613643826123e6565b915061364e836123e6565b92508282039050818111156136665761366561355b565b5b92915050565b60006060820190506136816000830186612902565b61368e6020830185612902565b61369b6040830184612902565b949350505050565b7f4d6f6e74616e7420696e76616c69646500000000000000000000000000000000600082015250565b60006136d96010836128b8565b91506136e4826136a3565b602082019050919050565b60006020820190508181036000830152613708816136cc565b9050919050565b600061371a826123e6565b9150613725836123e6565b925082820190508082111561373d5761373c61355b565b5b9291505056fea26469706673582212200cc44429f3331d9b4169a9e3e6cb8d69bda98d5452bf592c64c268cd4a60c57b64736f6c634300081c0033",
  "linkReferences": {},
  "deployedLinkReferences": {}
}