{
  "_format": "hh-sol-artifact-1",
  "contractName": "Ecommerce",
  "sourceName": "contracts/Ecommerce.sol",
  "abi": [
    {
      "anonymous": false,
      "inputs": [
        {
          "indexed": true,
          "internalType": "address",
          "name": "buyer",
          "type": "address"
        },
        {
          "indexed": true,
          "internalType": "uint256",
          "name": "commodityIndex",
          "type": "uint256"
        },
        {
          "indexed": false,
          "internalType": "uint256",
          "name": "quantity",
          "type": "uint256"
        },
        {
          "indexed": false,
          "internalType": "uint256",
          "name": "totalCost",
          "type": "uint256"
        },
        {
          "indexed": false,
          "internalType": "uint256",
          "name": "orderId",
          "type": "uint256"
        }
      ],
      "name": "CommodityPurchased",
      "type": "event"
    },
    {
      "inputs": [
        {
          "internalType": "string",
          "name": "_name",
          "type": "string"
        },
        {
          "internalType": "string",
          "name": "_category",
          "type": "string"
        },
        {
          "internalType": "uint256",
          "name": "_value",
          "type": "uint256"
        },
        {
          "internalType": "uint256",
          "name": "_quantity",
          "type": "uint256"
        },
        {
          "internalType": "string",
          "name": "_company",
          "type": "string"
        },
        {
          "internalType": "string",
          "name": "_image",
          "type": "string"
        }
      ],
      "name": "addCommodity",
      "outputs": [],
      "stateMutability": "nonpayable",
      "type": "function"
    },
    {
      "inputs": [
        {
          "internalType": "uint256",
          "name": "_index",
          "type": "uint256"
        },
        {
          "internalType": "uint256",
          "name": "_quantity",
          "type": "uint256"
        }
      ],
      "name": "buyCommodity",
      "outputs": [],
      "stateMutability": "payable",
      "type": "function"
    },
    {
      "inputs": [
        {
          "internalType": "uint256",
          "name": "",
          "type": "uint256"
        }
      ],
      "name": "commodities",
      "outputs": [
        {
          "internalType": "string",
          "name": "name",
          "type": "string"
        },
        {
          "internalType": "string",
          "name": "category",
          "type": "string"
        },
        {
          "internalType": "uint256",
          "name": "value",
          "type": "uint256"
        },
        {
          "internalType": "uint256",
          "name": "quantity",
          "type": "uint256"
        },
        {
          "internalType": "string",
          "name": "company",
          "type": "string"
        },
        {
          "internalType": "address",
          "name": "seller",
          "type": "address"
        },
        {
          "internalType": "string",
          "name": "image",
          "type": "string"
        }
      ],
      "stateMutability": "view",
      "type": "function"
    },
    {
      "inputs": [],
      "name": "deposit",
      "outputs": [],
      "stateMutability": "payable",
      "type": "function"
    },
    {
      "inputs": [
        {
          "internalType": "address",
          "name": "_user",
          "type": "address"
        }
      ],
      "name": "getBalance",
      "outputs": [
        {
          "internalType": "uint256",
          "name": "",
          "type": "uint256"
        }
      ],
      "stateMutability": "view",
      "type": "function"
    },
    {
      "inputs": [],
      "name": "getCommodities",
      "outputs": [
        {
          "components": [
            {
              "internalType": "string",
              "name": "name",
              "type": "string"
            },
            {
              "internalType": "string",
              "name": "category",
              "type": "string"
            },
            {
              "internalType": "uint256",
              "name": "value",
              "type": "uint256"
            },
            {
              "internalType": "uint256",
              "name": "quantity",
              "type": "uint256"
            },
            {
              "internalType": "string",
              "name": "company",
              "type": "string"
            },
            {
              "internalType": "address",
              "name": "seller",
              "type": "address"
            },
            {
              "internalType": "string",
              "name": "image",
              "type": "string"
            }
          ],
          "internalType": "struct Ecommerce.Commodity[]",
          "name": "",
          "type": "tuple[]"
        }
      ],
      "stateMutability": "view",
      "type": "function"
    },
    {
      "inputs": [
        {
          "internalType": "address",
          "name": "_user",
          "type": "address"
        }
      ],
      "name": "getEthBalance",
      "outputs": [
        {
          "internalType": "uint256",
          "name": "",
          "type": "uint256"
        }
      ],
      "stateMutability": "view",
      "type": "function"
    },
    {
      "inputs": [],
      "name": "getMyProfile",
      "outputs": [
        {
          "components": [
            {
              "internalType": "string",
              "name": "firstName",
              "type": "string"
            },
            {
              "internalType": "string",
              "name": "lastName",
              "type": "string"
            },
            {
              "internalType": "uint256",
              "name": "age",
              "type": "uint256"
            },
            {
              "internalType": "string",
              "name": "gender",
              "type": "string"
            },
            {
              "internalType": "bool",
              "name": "isSeller",
              "type": "bool"
            },
            {
              "internalType": "string",
              "name": "email",
              "type": "string"
            },
            {
              "internalType": "uint256",
              "name": "balance",
              "type": "uint256"
            },
            {
              "internalType": "string",
              "name": "image",
              "type": "string"
            }
          ],
          "internalType": "struct Ecommerce.User",
          "name": "",
          "type": "tuple"
        }
      ],
      "stateMutability": "view",
      "type": "function"
    },
    {
      "inputs": [],
      "name": "getOrders",
      "outputs": [
        {
          "components": [
            {
              "internalType": "uint256",
              "name": "id",
              "type": "uint256"
            },
            {
              "internalType": "address",
              "name": "buyer",
              "type": "address"
            },
            {
              "internalType": "uint256",
              "name": "commodityId",
              "type": "uint256"
            },
            {
              "internalType": "uint256",
              "name": "quantity",
              "type": "uint256"
            },
            {
              "internalType": "uint256",
              "name": "totalPrice",
              "type": "uint256"
            },
            {
              "internalType": "uint256",
              "name": "timestamp",
              "type": "uint256"
            },
            {
              "internalType": "string",
              "name": "status",
              "type": "string"
            }
          ],
          "internalType": "struct Ecommerce.Order[]",
          "name": "",
          "type": "tuple[]"
        }
      ],
      "stateMutability": "view",
      "type": "function"
    },
    {
      "inputs": [
        {
          "internalType": "address",
          "name": "_user",
          "type": "address"
        }
      ],
      "name": "getOrdersByUser",
      "outputs": [
        {
          "components": [
            {
              "internalType": "uint256",
              "name": "id",
              "type": "uint256"
            },
            {
              "internalType": "address",
              "name": "buyer",
              "type": "address"
            },
            {
              "internalType": "uint256",
              "name": "commodityId",
              "type": "uint256"
            },
            {
              "internalType": "uint256",
              "name": "quantity",
              "type": "uint256"
            },
            {
              "internalType": "uint256",
              "name": "totalPrice",
              "type": "uint256"
            },
            {
              "internalType": "uint256",
              "name": "timestamp",
              "type": "uint256"
            },
            {
              "internalType": "string",
              "name": "status",
              "type": "string"
            }
          ],
          "internalType": "struct Ecommerce.Order[]",
          "name": "",
          "type": "tuple[]"
        }
      ],
      "stateMutability": "view",
      "type": "function"
    },
    {
      "inputs": [
        {
          "internalType": "address",
          "name": "_userAddress",
          "type": "address"
        }
      ],
      "name": "getUserById",
      "outputs": [
        {
          "internalType": "string",
          "name": "firstName",
          "type": "string"
        },
        {
          "internalType": "string",
          "name": "lastName",
          "type": "string"
        },
        {
          "internalType": "uint256",
          "name": "age",
          "type": "uint256"
        },
        {
          "internalType": "string",
          "name": "gender",
          "type": "string"
        },
        {
          "internalType": "bool",
          "name": "isSeller",
          "type": "bool"
        },
        {
          "internalType": "string",
          "name": "email",
          "type": "string"
        },
        {
          "internalType": "uint256",
          "name": "balance",
          "type": "uint256"
        },
        {
          "internalType": "string",
          "name": "image",
          "type": "string"
        }
      ],
      "stateMutability": "view",
      "type": "function"
    },
    {
      "inputs": [
        {
          "internalType": "uint256",
          "name": "",
          "type": "uint256"
        }
      ],
      "name": "orders",
      "outputs": [
        {
          "internalType": "uint256",
          "name": "id",
          "type": "uint256"
        },
        {
          "internalType": "address",
          "name": "buyer",
          "type": "address"
        },
        {
          "internalType": "uint256",
          "name": "commodityId",
          "type": "uint256"
        },
        {
          "internalType": "uint256",
          "name": "quantity",
          "type": "uint256"
        },
        {
          "internalType": "uint256",
          "name": "totalPrice",
          "type": "uint256"
        },
        {
          "internalType": "uint256",
          "name": "timestamp",
          "type": "uint256"
        },
        {
          "internalType": "string",
          "name": "status",
          "type": "string"
        }
      ],
      "stateMutability": "view",
      "type": "function"
    },
    {
      "inputs": [
        {
          "internalType": "string",
          "name": "_firstName",
          "type": "string"
        },
        {
          "internalType": "string",
          "name": "_lastName",
          "type": "string"
        },
        {
          "internalType": "uint256",
          "name": "_age",
          "type": "uint256"
        },
        {
          "internalType": "string",
          "name": "_gender",
          "type": "string"
        },
        {
          "internalType": "bool",
          "name": "_isSeller",
          "type": "bool"
        },
        {
          "internalType": "string",
          "name": "_email",
          "type": "string"
        },
        {
          "internalType": "string",
          "name": "_image",
          "type": "string"
        }
      ],
      "name": "register",
      "outputs": [],
      "stateMutability": "nonpayable",
      "type": "function"
    },
    {
      "inputs": [
        {
          "internalType": "uint256",
          "name": "_index",
          "type": "uint256"
        },
        {
          "internalType": "string",
          "name": "_name",
          "type": "string"
        },
        {
          "internalType": "string",
          "name": "_category",
          "type": "string"
        },
        {
          "internalType": "uint256",
          "name": "_value",
          "type": "uint256"
        },
        {
          "internalType": "uint256",
          "name": "_quantity",
          "type": "uint256"
        },
        {
          "internalType": "string",
          "name": "_company",
          "type": "string"
        },
        {
          "internalType": "string",
          "name": "_image",
          "type": "string"
        }
      ],
      "name": "updateCommodity",
      "outputs": [],
      "stateMutability": "nonpayable",
      "type": "function"
    },
    {
      "inputs": [
        {
          "internalType": "uint256",
          "name": "_orderId",
          "type": "uint256"
        },
        {
          "internalType": "string",
          "name": "_status",
          "type": "string"
        }
      ],
      "name": "updateOrderStatus",
      "outputs": [],
      "stateMutability": "nonpayable",
      "type": "function"
    },
    {
      "inputs": [
        {
          "internalType": "string",
          "name": "_firstName",
          "type": "string"
        },
        {
          "internalType": "string",
          "name": "_lastName",
          "type": "string"
        },
        {
          "internalType": "uint256",
          "name": "_age",
          "type": "uint256"
        },
        {
          "internalType": "string",
          "name": "_gender",
          "type": "string"
        },
        {
          "internalType": "string",
          "name": "_email",
          "type": "string"
        },
        {
          "internalType": "string",
          "name": "_image",
          "type": "string"
        }
      ],
      "name": "updateProfile",
      "outputs": [],
      "stateMutability": "nonpayable",
      "type": "function"
    },
    {
      "inputs": [
        {
          "internalType": "address",
          "name": "",
          "type": "address"
        },
        {
          "internalType": "uint256",
          "name": "",
          "type": "uint256"
        }
      ],
      "name": "userOrders",
      "outputs": [
        {
          "internalType": "uint256",
          "name": "",
          "type": "uint256"
        }
      ],
      "stateMutability": "view",
      "type": "function"
    },
    {
      "inputs": [
        {
          "internalType": "address",
          "name": "",
          "type": "address"
        }
      ],
      "name": "users",
      "outputs": [
        {
          "internalType": "string",
          "name": "firstName",
          "type": "string"
        },
        {
          "internalType": "string",
          "name": "lastName",
          "type": "string"
        },
        {
          "internalType": "uint256",
          "name": "age",
          "type": "uint256"
        },
        {
          "internalType": "string",
          "name": "gender",
          "type": "string"
        },
        {
          "internalType": "bool",
          "name": "isSeller",
          "type": "bool"
        },
        {
          "internalType": "string",
          "name": "email",
          "type": "string"
        },
        {
          "internalType": "uint256",
          "name": "balance",
          "type": "uint256"
        },
        {
          "internalType": "string",
          "name": "image",
          "type": "string"
        }
      ],
      "stateMutability": "view",
      "type": "function"
    }
  ],
  "bytecode": "0x6080604052348015600f57600080fd5b50613b208061001f6000396000f3fe6080604052600436106101095760003560e01c806352f70b7111610095578063a87430ba11610064578063a87430ba1461038b578063b4253769146103cf578063d0e30db0146103fa578063f8b2cb4f14610404578063fcfd84e21461044157610109565b806352f70b71146102c65780638466a262146102ef578063856652e91461030b578063a85c38ef1461034857610109565b806328786d55116100dc57806328786d55146101e35780632e2dc43e1461020c57806344143b8114610237578063451acba9146102605780634d2301cc1461028957610109565b806318f1c7091461010e578063205fdde61461014b57806321527e50146101745780632301ab1e1461019f575b600080fd5b34801561011a57600080fd5b5061013560048036038101906101309190612524565b610484565b6040516101429190612767565b60405180910390f35b34801561015757600080fd5b50610172600480360381019061016d91906128ea565b610714565b005b34801561018057600080fd5b5061018961080e565b6040516101969190612a2d565b60405180910390f35b3480156101ab57600080fd5b506101c660048036038101906101c19190612524565b610b6e565b6040516101da989796959493929190612ab7565b60405180910390f35b3480156101ef57600080fd5b5061020a60048036038101906102059190612b84565b610ec7565b005b34801561021857600080fd5b50610221610ff0565b60405161022e9190612767565b60405180910390f35b34801561024357600080fd5b5061025e60048036038101906102599190612cb2565b611169565b005b34801561026c57600080fd5b5061028760048036038101906102829190612dcb565b61126a565b005b34801561029557600080fd5b506102b060048036038101906102ab9190612524565b611429565b6040516102bd9190612ec8565b60405180910390f35b3480156102d257600080fd5b506102ed60048036038101906102e89190612ee3565b61144a565b005b61030960048036038101906103049190612ff5565b6115ad565b005b34801561031757600080fd5b50610332600480360381019061032d9190613035565b611965565b60405161033f9190612ec8565b60405180910390f35b34801561035457600080fd5b5061036f600480360381019061036a9190613075565b611996565b60405161038297969594939291906130b1565b60405180910390f35b34801561039757600080fd5b506103b260048036038101906103ad9190612524565b611a90565b6040516103c6989796959493929190612ab7565b60405180910390f35b3480156103db57600080fd5b506103e4611d8d565b6040516103f1919061329a565b60405180910390f35b61040261209e565b005b34801561041057600080fd5b5061042b60048036038101906104269190612524565b61213b565b6040516104389190612ec8565b60405180910390f35b34801561044d57600080fd5b5061046860048036038101906104639190613075565b612186565b60405161047b97969594939291906132bc565b60405180910390f35b60606000600360008473ffffffffffffffffffffffffffffffffffffffff1673ffffffffffffffffffffffffffffffffffffffff16815260200190815260200160002080548060200260200160405190810160405280929190818152602001828054801561051157602002820191906000526020600020905b8154815260200190600101908083116104fd575b505050505090506000815167ffffffffffffffff811115610535576105346127bf565b5b60405190808252806020026020018201604052801561056e57816020015b61055b612418565b8152602001906001900390816105535790505b50905060005b825181101561070957600283828151811061059257610591613347565b5b6020026020010151815481106105ab576105aa613347565b5b90600052602060002090600702016040518060e0016040529081600082015481526020016001820160009054906101000a900473ffffffffffffffffffffffffffffffffffffffff1673ffffffffffffffffffffffffffffffffffffffff1673ffffffffffffffffffffffffffffffffffffffff1681526020016002820154815260200160038201548152602001600482015481526020016005820154815260200160068201805461065c906133a5565b80601f0160208091040260200160405190810160405280929190818152602001828054610688906133a5565b80156106d55780601f106106aa576101008083540402835291602001916106d5565b820191906000526020600020905b8154815290600101906020018083116106b857829003601f168201915b5050505050815250508282815181106106f1576106f0613347565b5b60200260200101819052508080600101915050610574565b508092505050919050565b60006002838154811061072a57610729613347565b5b906000526020600020906007020190506000600182600201548154811061075457610753613347565b5b906000526020600020906007020190508060050160009054906101000a900473ffffffffffffffffffffffffffffffffffffffff1673ffffffffffffffffffffffffffffffffffffffff163373ffffffffffffffffffffffffffffffffffffffff16146107f6576040517f08c379a00000000000000000000000000000000000000000000000000000000081526004016107ed90613422565b60405180910390fd5b8282600601908161080791906135ee565b5050505050565b61081661246b565b6000803373ffffffffffffffffffffffffffffffffffffffff1673ffffffffffffffffffffffffffffffffffffffff16815260200190815260200160002060405180610100016040529081600082018054610870906133a5565b80601f016020809104026020016040519081016040528092919081815260200182805461089c906133a5565b80156108e95780601f106108be576101008083540402835291602001916108e9565b820191906000526020600020905b8154815290600101906020018083116108cc57829003601f168201915b50505050508152602001600182018054610902906133a5565b80601f016020809104026020016040519081016040528092919081815260200182805461092e906133a5565b801561097b5780601f106109505761010080835404028352916020019161097b565b820191906000526020600020905b81548152906001019060200180831161095e57829003601f168201915b505050505081526020016002820154815260200160038201805461099e906133a5565b80601f01602080910402602001604051908101604052809291908181526020018280546109ca906133a5565b8015610a175780601f106109ec57610100808354040283529160200191610a17565b820191906000526020600020905b8154815290600101906020018083116109fa57829003601f168201915b505050505081526020016004820160009054906101000a900460ff16151515158152602001600582018054610a4b906133a5565b80601f0160208091040260200160405190810160405280929190818152602001828054610a77906133a5565b8015610ac45780601f10610a9957610100808354040283529160200191610ac4565b820191906000526020600020905b815481529060010190602001808311610aa757829003601f168201915b5050505050815260200160068201548152602001600782018054610ae7906133a5565b80601f0160208091040260200160405190810160405280929190818152602001828054610b13906133a5565b8015610b605780601f10610b3557610100808354040283529160200191610b60565b820191906000526020600020905b815481529060010190602001808311610b4357829003601f168201915b505050505081525050905090565b60608060006060600060606000606060008060008b73ffffffffffffffffffffffffffffffffffffffff1673ffffffffffffffffffffffffffffffffffffffff168152602001908152602001600020905080600001816001018260020154836003018460040160009054906101000a900460ff1685600501866006015487600701878054610bfb906133a5565b80601f0160208091040260200160405190810160405280929190818152602001828054610c27906133a5565b8015610c745780601f10610c4957610100808354040283529160200191610c74565b820191906000526020600020905b815481529060010190602001808311610c5757829003601f168201915b50505050509750868054610c87906133a5565b80601f0160208091040260200160405190810160405280929190818152602001828054610cb3906133a5565b8015610d005780601f10610cd557610100808354040283529160200191610d00565b820191906000526020600020905b815481529060010190602001808311610ce357829003601f168201915b50505050509650848054610d13906133a5565b80601f0160208091040260200160405190810160405280929190818152602001828054610d3f906133a5565b8015610d8c5780601f10610d6157610100808354040283529160200191610d8c565b820191906000526020600020905b815481529060010190602001808311610d6f57829003601f168201915b50505050509450828054610d9f906133a5565b80601f0160208091040260200160405190810160405280929190818152602001828054610dcb906133a5565b8015610e185780601f10610ded57610100808354040283529160200191610e18565b820191906000526020600020905b815481529060010190602001808311610dfb57829003601f168201915b50505050509250808054610e2b906133a5565b80601f0160208091040260200160405190810160405280929190818152602001828054610e57906133a5565b8015610ea45780601f10610e7957610100808354040283529160200191610ea4565b820191906000526020600020905b815481529060010190602001808311610e8757829003601f168201915b505050505090509850985098509850985098509850985050919395975091939597565b604051806101000160405280888152602001878152602001868152602001858152602001841515815260200183815260200160008152602001828152506000803373ffffffffffffffffffffffffffffffffffffffff1673ffffffffffffffffffffffffffffffffffffffff1681526020019081526020016000206000820151816000019081610f5791906135ee565b506020820151816001019081610f6d91906135ee565b50604082015181600201556060820151816003019081610f8d91906135ee565b5060808201518160040160006101000a81548160ff02191690831515021790555060a0820151816005019081610fc391906135ee565b5060c0820151816006015560e0820151816007019081610fe391906135ee565b5090505050505050505050565b60606002805480602002602001604051908101604052809291908181526020016000905b8282101561116057838290600052602060002090600702016040518060e0016040529081600082015481526020016001820160009054906101000a900473ffffffffffffffffffffffffffffffffffffffff1673ffffffffffffffffffffffffffffffffffffffff1673ffffffffffffffffffffffffffffffffffffffff168152602001600282015481526020016003820154815260200160048201548152602001600582015481526020016006820180546110cf906133a5565b80601f01602080910402602001604051908101604052809291908181526020018280546110fb906133a5565b80156111485780601f1061111d57610100808354040283529160200191611148565b820191906000526020600020905b81548152906001019060200180831161112b57829003601f168201915b50505050508152505081526020019060010190611014565b50505050905090565b60008060003373ffffffffffffffffffffffffffffffffffffffff1673ffffffffffffffffffffffffffffffffffffffff168152602001908152602001600020905060008160000180546111bc906133a5565b9050116111fe576040517f08c379a00000000000000000000000000000000000000000000000000000000081526004016111f59061370c565b60405180910390fd5b8681600001908161120f91906135ee565b508581600101908161122191906135ee565b508481600201819055508381600301908161123c91906135ee565b508281600501908161124e91906135ee565b508181600701908161126091906135ee565b5050505050505050565b6000803373ffffffffffffffffffffffffffffffffffffffff1673ffffffffffffffffffffffffffffffffffffffff16815260200190815260200160002060040160009054906101000a900460ff166112f8576040517f08c379a00000000000000000000000000000000000000000000000000000000081526004016112ef90613778565b60405180910390fd5b60016040518060e001604052808881526020018781526020018681526020018581526020018481526020013373ffffffffffffffffffffffffffffffffffffffff168152602001838152509080600181540180825580915050600190039060005260206000209060070201600090919091909150600082015181600001908161138191906135ee565b50602082015181600101908161139791906135ee565b50604082015181600201556060820151816003015560808201518160040190816113c191906135ee565b5060a08201518160050160006101000a81548173ffffffffffffffffffffffffffffffffffffffff021916908373ffffffffffffffffffffffffffffffffffffffff16021790555060c082015181600601908161141e91906135ee565b505050505050505050565b60008173ffffffffffffffffffffffffffffffffffffffff16319050919050565b6001805490508710611491576040517f08c379a0000000000000000000000000000000000000000000000000000000008152600401611488906137e4565b60405180910390fd5b6000600188815481106114a7576114a6613347565b5b906000526020600020906007020190508060050160009054906101000a900473ffffffffffffffffffffffffffffffffffffffff1673ffffffffffffffffffffffffffffffffffffffff163373ffffffffffffffffffffffffffffffffffffffff1614611549576040517f08c379a000000000000000000000000000000000000000000000000000000000815260040161154090613876565b60405180910390fd5b8681600001908161155a91906135ee565b508581600101908161156c91906135ee565b508481600201819055508381600301819055508281600401908161159091906135ee565b50818160060190816115a291906135ee565b505050505050505050565b6000600183815481106115c3576115c2613347565b5b90600052602060002090600702019050818160030154101561161a576040517f08c379a0000000000000000000000000000000000000000000000000000000008152600401611611906138e2565b60405180910390fd5b600082633b9aca0083600201546116319190613931565b61163b9190613931565b905080341015611680576040517f08c379a0000000000000000000000000000000000000000000000000000000008152600401611677906139bf565b60405180910390fd5b8282600301600082825461169491906139df565b925050819055508160050160009054906101000a900473ffffffffffffffffffffffffffffffffffffffff1673ffffffffffffffffffffffffffffffffffffffff166108fc829081150290604051600060405180830381858888f19350505050158015611705573d6000803e3d6000fd5b5080341115611761573373ffffffffffffffffffffffffffffffffffffffff166108fc823461173491906139df565b9081150290604051600060405180830381858888f1935050505015801561175f573d6000803e3d6000fd5b505b6000600280549050905060026040518060e001604052808381526020013373ffffffffffffffffffffffffffffffffffffffff1681526020018781526020018681526020018481526020014281526020016040518060400160405280600781526020017f50656e64696e670000000000000000000000000000000000000000000000000081525081525090806001815401808255809150506001900390600052602060002090600702016000909190919091506000820151816000015560208201518160010160006101000a81548173ffffffffffffffffffffffffffffffffffffffff021916908373ffffffffffffffffffffffffffffffffffffffff16021790555060408201518160020155606082015181600301556080820151816004015560a0820151816005015560c08201518160060190816118a291906135ee565b505050600360003373ffffffffffffffffffffffffffffffffffffffff1673ffffffffffffffffffffffffffffffffffffffff168152602001908152602001600020819080600181540180825580915050600190039060005260206000200160009091909190915055843373ffffffffffffffffffffffffffffffffffffffff167fde901a5326c401495587fe4218b72c663e030c43ae4a93f8f741ee2016e60c1386858560405161195693929190613a13565b60405180910390a35050505050565b6003602052816000526040600020818154811061198157600080fd5b90600052602060002001600091509150505481565b600281815481106119a657600080fd5b90600052602060002090600702016000915090508060000154908060010160009054906101000a900473ffffffffffffffffffffffffffffffffffffffff1690806002015490806003015490806004015490806005015490806006018054611a0d906133a5565b80601f0160208091040260200160405190810160405280929190818152602001828054611a39906133a5565b8015611a865780601f10611a5b57610100808354040283529160200191611a86565b820191906000526020600020905b815481529060010190602001808311611a6957829003601f168201915b5050505050905087565b6000602052806000526040600020600091509050806000018054611ab3906133a5565b80601f0160208091040260200160405190810160405280929190818152602001828054611adf906133a5565b8015611b2c5780601f10611b0157610100808354040283529160200191611b2c565b820191906000526020600020905b815481529060010190602001808311611b0f57829003601f168201915b505050505090806001018054611b41906133a5565b80601f0160208091040260200160405190810160405280929190818152602001828054611b6d906133a5565b8015611bba5780601f10611b8f57610100808354040283529160200191611bba565b820191906000526020600020905b815481529060010190602001808311611b9d57829003601f168201915b505050505090806002015490806003018054611bd5906133a5565b80601f0160208091040260200160405190810160405280929190818152602001828054611c01906133a5565b8015611c4e5780601f10611c2357610100808354040283529160200191611c4e565b820191906000526020600020905b815481529060010190602001808311611c3157829003601f168201915b5050505050908060040160009054906101000a900460ff1690806005018054611c76906133a5565b80601f0160208091040260200160405190810160405280929190818152602001828054611ca2906133a5565b8015611cef5780601f10611cc457610100808354040283529160200191611cef565b820191906000526020600020905b815481529060010190602001808311611cd257829003601f168201915b505050505090806006015490806007018054611d0a906133a5565b80601f0160208091040260200160405190810160405280929190818152602001828054611d36906133a5565b8015611d835780601f10611d5857610100808354040283529160200191611d83565b820191906000526020600020905b815481529060010190602001808311611d6657829003601f168201915b5050505050905088565b60606001805480602002602001604051908101604052809291908181526020016000905b8282101561209557838290600052602060002090600702016040518060e0016040529081600082018054611de4906133a5565b80601f0160208091040260200160405190810160405280929190818152602001828054611e10906133a5565b8015611e5d5780601f10611e3257610100808354040283529160200191611e5d565b820191906000526020600020905b815481529060010190602001808311611e4057829003601f168201915b50505050508152602001600182018054611e76906133a5565b80601f0160208091040260200160405190810160405280929190818152602001828054611ea2906133a5565b8015611eef5780601f10611ec457610100808354040283529160200191611eef565b820191906000526020600020905b815481529060010190602001808311611ed257829003601f168201915b505050505081526020016002820154815260200160038201548152602001600482018054611f1c906133a5565b80601f0160208091040260200160405190810160405280929190818152602001828054611f48906133a5565b8015611f955780601f10611f6a57610100808354040283529160200191611f95565b820191906000526020600020905b815481529060010190602001808311611f7857829003601f168201915b505050505081526020016005820160009054906101000a900473ffffffffffffffffffffffffffffffffffffffff1673ffffffffffffffffffffffffffffffffffffffff1673ffffffffffffffffffffffffffffffffffffffff168152602001600682018054612004906133a5565b80601f0160208091040260200160405190810160405280929190818152602001828054612030906133a5565b801561207d5780601f106120525761010080835404028352916020019161207d565b820191906000526020600020905b81548152906001019060200180831161206057829003601f168201915b50505050508152505081526020019060010190611db1565b50505050905090565b600034116120e1576040517f08c379a00000000000000000000000000000000000000000000000000000000081526004016120d890613a96565b60405180910390fd5b346000803373ffffffffffffffffffffffffffffffffffffffff1673ffffffffffffffffffffffffffffffffffffffff16815260200190815260200160002060060160008282546121329190613ab6565b92505081905550565b60008060008373ffffffffffffffffffffffffffffffffffffffff1673ffffffffffffffffffffffffffffffffffffffff168152602001908152602001600020600601549050919050565b6001818154811061219657600080fd5b90600052602060002090600702016000915090508060000180546121b9906133a5565b80601f01602080910402602001604051908101604052809291908181526020018280546121e5906133a5565b80156122325780601f1061220757610100808354040283529160200191612232565b820191906000526020600020905b81548152906001019060200180831161221557829003601f168201915b505050505090806001018054612247906133a5565b80601f0160208091040260200160405190810160405280929190818152602001828054612273906133a5565b80156122c05780601f10612295576101008083540402835291602001916122c0565b820191906000526020600020905b8154815290600101906020018083116122a357829003601f168201915b5050505050908060020154908060030154908060040180546122e1906133a5565b80601f016020809104026020016040519081016040528092919081815260200182805461230d906133a5565b801561235a5780601f1061232f5761010080835404028352916020019161235a565b820191906000526020600020905b81548152906001019060200180831161233d57829003601f168201915b5050505050908060050160009054906101000a900473ffffffffffffffffffffffffffffffffffffffff1690806006018054612395906133a5565b80601f01602080910402602001604051908101604052809291908181526020018280546123c1906133a5565b801561240e5780601f106123e35761010080835404028352916020019161240e565b820191906000526020600020905b8154815290600101906020018083116123f157829003601f168201915b5050505050905087565b6040518060e0016040528060008152602001600073ffffffffffffffffffffffffffffffffffffffff16815260200160008152602001600081526020016000815260200160008152602001606081525090565b604051806101000160405280606081526020016060815260200160008152602001606081526020016000151581526020016060815260200160008152602001606081525090565b6000604051905090565b600080fd5b600080fd5b600073ffffffffffffffffffffffffffffffffffffffff82169050919050565b60006124f1826124c6565b9050919050565b612501816124e6565b811461250c57600080fd5b50565b60008135905061251e816124f8565b92915050565b60006020828403121561253a576125396124bc565b5b60006125488482850161250f565b91505092915050565b600081519050919050565b600082825260208201905092915050565b6000819050602082019050919050565b6000819050919050565b6125908161257d565b82525050565b61259f816124e6565b82525050565b600081519050919050565b600082825260208201905092915050565b60005b838110156125df5780820151818401526020810190506125c4565b60008484015250505050565b6000601f19601f8301169050919050565b6000612607826125a5565b61261181856125b0565b93506126218185602086016125c1565b61262a816125eb565b840191505092915050565b600060e08301600083015161264d6000860182612587565b5060208301516126606020860182612596565b5060408301516126736040860182612587565b5060608301516126866060860182612587565b5060808301516126996080860182612587565b5060a08301516126ac60a0860182612587565b5060c083015184820360c08601526126c482826125fc565b9150508091505092915050565b60006126dd8383612635565b905092915050565b6000602082019050919050565b60006126fd82612551565b612707818561255c565b9350836020820285016127198561256d565b8060005b85811015612755578484038952815161273685826126d1565b9450612741836126e5565b925060208a0199505060018101905061271d565b50829750879550505050505092915050565b6000602082019050818103600083015261278181846126f2565b905092915050565b6127928161257d565b811461279d57600080fd5b50565b6000813590506127af81612789565b92915050565b600080fd5b600080fd5b7f4e487b7100000000000000000000000000000000000000000000000000000000600052604160045260246000fd5b6127f7826125eb565b810181811067ffffffffffffffff82111715612816576128156127bf565b5b80604052505050565b60006128296124b2565b905061283582826127ee565b919050565b600067ffffffffffffffff821115612855576128546127bf565b5b61285e826125eb565b9050602081019050919050565b82818337600083830152505050565b600061288d6128888461283a565b61281f565b9050828152602081018484840111156128a9576128a86127ba565b5b6128b484828561286b565b509392505050565b600082601f8301126128d1576128d06127b5565b5b81356128e184826020860161287a565b91505092915050565b60008060408385031215612901576129006124bc565b5b600061290f858286016127a0565b925050602083013567ffffffffffffffff8111156129305761292f6124c1565b5b61293c858286016128bc565b9150509250929050565b60008115159050919050565b61295b81612946565b82525050565b600061010083016000830151848203600086015261297f82826125fc565b9150506020830151848203602086015261299982826125fc565b91505060408301516129ae6040860182612587565b50606083015184820360608601526129c682826125fc565b91505060808301516129db6080860182612952565b5060a083015184820360a08601526129f382826125fc565b91505060c0830151612a0860c0860182612587565b5060e083015184820360e0860152612a2082826125fc565b9150508091505092915050565b60006020820190508181036000830152612a478184612961565b905092915050565b600082825260208201905092915050565b6000612a6b826125a5565b612a758185612a4f565b9350612a858185602086016125c1565b612a8e816125eb565b840191505092915050565b612aa28161257d565b82525050565b612ab181612946565b82525050565b6000610100820190508181036000830152612ad2818b612a60565b90508181036020830152612ae6818a612a60565b9050612af56040830189612a99565b8181036060830152612b078188612a60565b9050612b166080830187612aa8565b81810360a0830152612b288186612a60565b9050612b3760c0830185612a99565b81810360e0830152612b498184612a60565b90509998505050505050505050565b612b6181612946565b8114612b6c57600080fd5b50565b600081359050612b7e81612b58565b92915050565b600080600080600080600060e0888a031215612ba357612ba26124bc565b5b600088013567ffffffffffffffff811115612bc157612bc06124c1565b5b612bcd8a828b016128bc565b975050602088013567ffffffffffffffff811115612bee57612bed6124c1565b5b612bfa8a828b016128bc565b9650506040612c0b8a828b016127a0565b955050606088013567ffffffffffffffff811115612c2c57612c2b6124c1565b5b612c388a828b016128bc565b9450506080612c498a828b01612b6f565b93505060a088013567ffffffffffffffff811115612c6a57612c696124c1565b5b612c768a828b016128bc565b92505060c088013567ffffffffffffffff811115612c9757612c966124c1565b5b612ca38a828b016128bc565b91505092959891949750929550565b60008060008060008060c08789031215612ccf57612cce6124bc565b5b600087013567ffffffffffffffff811115612ced57612cec6124c1565b5b612cf989828a016128bc565b965050602087013567ffffffffffffffff811115612d1a57612d196124c1565b5b612d2689828a016128bc565b9550506040612d3789828a016127a0565b945050606087013567ffffffffffffffff811115612d5857612d576124c1565b5b612d6489828a016128bc565b935050608087013567ffffffffffffffff811115612d8557612d846124c1565b5b612d9189828a016128bc565b92505060a087013567ffffffffffffffff811115612db257612db16124c1565b5b612dbe89828a016128bc565b9150509295509295509295565b60008060008060008060c08789031215612de857612de76124bc565b5b600087013567ffffffffffffffff811115612e0657612e056124c1565b5b612e1289828a016128bc565b965050602087013567ffffffffffffffff811115612e3357612e326124c1565b5b612e3f89828a016128bc565b9550506040612e5089828a016127a0565b9450506060612e6189828a016127a0565b935050608087013567ffffffffffffffff811115612e8257612e816124c1565b5b612e8e89828a016128bc565b92505060a087013567ffffffffffffffff811115612eaf57612eae6124c1565b5b612ebb89828a016128bc565b9150509295509295509295565b6000602082019050612edd6000830184612a99565b92915050565b600080600080600080600060e0888a031215612f0257612f016124bc565b5b6000612f108a828b016127a0565b975050602088013567ffffffffffffffff811115612f3157612f306124c1565b5b612f3d8a828b016128bc565b965050604088013567ffffffffffffffff811115612f5e57612f5d6124c1565b5b612f6a8a828b016128bc565b9550506060612f7b8a828b016127a0565b9450506080612f8c8a828b016127a0565b93505060a088013567ffffffffffffffff811115612fad57612fac6124c1565b5b612fb98a828b016128bc565b92505060c088013567ffffffffffffffff811115612fda57612fd96124c1565b5b612fe68a828b016128bc565b91505092959891949750929550565b6000806040838503121561300c5761300b6124bc565b5b600061301a858286016127a0565b925050602061302b858286016127a0565b9150509250929050565b6000806040838503121561304c5761304b6124bc565b5b600061305a8582860161250f565b925050602061306b858286016127a0565b9150509250929050565b60006020828403121561308b5761308a6124bc565b5b6000613099848285016127a0565b91505092915050565b6130ab816124e6565b82525050565b600060e0820190506130c6600083018a612a99565b6130d360208301896130a2565b6130e06040830188612a99565b6130ed6060830187612a99565b6130fa6080830186612a99565b61310760a0830185612a99565b81810360c08301526131198184612a60565b905098975050505050505050565b600081519050919050565b600082825260208201905092915050565b6000819050602082019050919050565b600060e083016000830151848203600086015261317082826125fc565b9150506020830151848203602086015261318a82826125fc565b915050604083015161319f6040860182612587565b5060608301516131b26060860182612587565b50608083015184820360808601526131ca82826125fc565b91505060a08301516131df60a0860182612596565b5060c083015184820360c08601526131f782826125fc565b9150508091505092915050565b60006132108383613153565b905092915050565b6000602082019050919050565b600061323082613127565b61323a8185613132565b93508360208202850161324c85613143565b8060005b8581101561328857848403895281516132698582613204565b945061327483613218565b925060208a01995050600181019050613250565b50829750879550505050505092915050565b600060208201905081810360008301526132b48184613225565b905092915050565b600060e08201905081810360008301526132d6818a612a60565b905081810360208301526132ea8189612a60565b90506132f96040830188612a99565b6133066060830187612a99565b81810360808301526133188186612a60565b905061332760a08301856130a2565b81810360c08301526133398184612a60565b905098975050505050505050565b7f4e487b7100000000000000000000000000000000000000000000000000000000600052603260045260246000fd5b7f4e487b7100000000000000000000000000000000000000000000000000000000600052602260045260246000fd5b600060028204905060018216806133bd57607f821691505b6020821081036133d0576133cf613376565b5b50919050565b7f4f6e6c792073656c6c65722063616e2075706461746520737461747573000000600082015250565b600061340c601d83612a4f565b9150613417826133d6565b602082019050919050565b6000602082019050818103600083015261343b816133ff565b9050919050565b60008190508160005260206000209050919050565b60006020601f8301049050919050565b600082821b905092915050565b6000600883026134a47fffffffffffffffffffffffffffffffffffffffffffffffffffffffffffffffff82613467565b6134ae8683613467565b95508019841693508086168417925050509392505050565b6000819050919050565b60006134eb6134e66134e18461257d565b6134c6565b61257d565b9050919050565b6000819050919050565b613505836134d0565b613519613511826134f2565b848454613474565b825550505050565b600090565b61352e613521565b6135398184846134fc565b505050565b5b8181101561355d57613552600082613526565b60018101905061353f565b5050565b601f8211156135a25761357381613442565b61357c84613457565b8101602085101561358b578190505b61359f61359785613457565b83018261353e565b50505b505050565b600082821c905092915050565b60006135c5600019846008026135a7565b1980831691505092915050565b60006135de83836135b4565b9150826002028217905092915050565b6135f7826125a5565b67ffffffffffffffff8111156136105761360f6127bf565b5b61361a82546133a5565b613625828285613561565b600060209050601f8311600181146136585760008415613646578287015190505b61365085826135d2565b8655506136b8565b601f19841661366686613442565b60005b8281101561368e57848901518255600182019150602085019450602081019050613669565b868310156136ab57848901516136a7601f8916826135b4565b8355505b6001600288020188555050505b505050505050565b7f55736572206e6f74207265676973746572656400000000000000000000000000600082015250565b60006136f6601383612a4f565b9150613701826136c0565b602082019050919050565b60006020820190508181036000830152613725816136e9565b9050919050565b7f4f6e6c792073656c6c6572732063616e2061646420636f6d6d6f646974696573600082015250565b6000613762602083612a4f565b915061376d8261372c565b602082019050919050565b6000602082019050818103600083015261379181613755565b9050919050565b7f50726f6475697420696e6578697374616e740000000000000000000000000000600082015250565b60006137ce601283612a4f565b91506137d982613798565b602082019050919050565b600060208201905081810360008301526137fd816137c1565b9050919050565b7f5365756c206c652076656e646575722070657574206d6f64696669657220736f60008201527f6e2070726f647569740000000000000000000000000000000000000000000000602082015250565b6000613860602983612a4f565b915061386b82613804565b604082019050919050565b6000602082019050818103600083015261388f81613853565b9050919050565b7f4e6f7420656e6f7567682073746f636b00000000000000000000000000000000600082015250565b60006138cc601083612a4f565b91506138d782613896565b602082019050919050565b600060208201905081810360008301526138fb816138bf565b9050919050565b7f4e487b7100000000000000000000000000000000000000000000000000000000600052601160045260246000fd5b600061393c8261257d565b91506139478361257d565b92508282026139558161257d565b9150828204841483151761396c5761396b613902565b5b5092915050565b7f506169656d656e7420696e737566666973616e74000000000000000000000000600082015250565b60006139a9601483612a4f565b91506139b482613973565b602082019050919050565b600060208201905081810360008301526139d88161399c565b9050919050565b60006139ea8261257d565b91506139f58361257d565b9250828203905081811115613a0d57613a0c613902565b5b92915050565b6000606082019050613a286000830186612a99565b613a356020830185612a99565b613a426040830184612a99565b949350505050565b7f4d6f6e74616e7420696e76616c69646500000000000000000000000000000000600082015250565b6000613a80601083612a4f565b9150613a8b82613a4a565b602082019050919050565b60006020820190508181036000830152613aaf81613a73565b9050919050565b6000613ac18261257d565b9150613acc8361257d565b9250828201905080821115613ae457613ae3613902565b5b9291505056fea26469706673582212200a9ca525430d9ae9441d7bcfd43b4ccc3cc1c1285b939c63a4c91847558770b464736f6c634300081c0033",
  "linkReferences": {},
  "deployedLinkReferences": {}
}