{
  "_format": "hh-sol-artifact-1",
  "contractName": "Ecommerce",
  "sourceName": "contracts/Ecommerce.sol",
  "abi": [
    {
      "inputs": [
        {
          "internalType": "string",
          "name": "_name",
          "type": "string"
        },
        {
          "internalType": "string",
          "name": "_category",
          "type": "string"
        },
        {
          "internalType": "uint256",
          "name": "_value",
          "type": "uint256"
        },
        {
          "internalType": "uint256",
          "name": "_quantity",
          "type": "uint256"
        },
        {
          "internalType": "string",
          "name": "_company",
          "type": "string"
        }
      ],
      "name": "addCommodity",
      "outputs": [],
      "stateMutability": "nonpayable",
      "type": "function"
    },
    {
      "inputs": [
        {
          "internalType": "uint256",
          "name": "_index",
          "type": "uint256"
        }
      ],
      "name": "buyCommodity",
      "outputs": [],
      "stateMutability": "nonpayable",
      "type": "function"
    },
    {
      "inputs": [
        {
          "internalType": "uint256",
          "name": "",
          "type": "uint256"
        }
      ],
      "name": "commodities",
      "outputs": [
        {
          "internalType": "string",
          "name": "name",
          "type": "string"
        },
        {
          "internalType": "string",
          "name": "category",
          "type": "string"
        },
        {
          "internalType": "uint256",
          "name": "value",
          "type": "uint256"
        },
        {
          "internalType": "uint256",
          "name": "quantity",
          "type": "uint256"
        },
        {
          "internalType": "string",
          "name": "company",
          "type": "string"
        },
        {
          "internalType": "address",
          "name": "seller",
          "type": "address"
        }
      ],
      "stateMutability": "view",
      "type": "function"
    },
    {
      "inputs": [],
      "name": "deposit",
      "outputs": [],
      "stateMutability": "payable",
      "type": "function"
    },
    {
      "inputs": [
        {
          "internalType": "address",
          "name": "_user",
          "type": "address"
        }
      ],
      "name": "getBalance",
      "outputs": [
        {
          "internalType": "uint256",
          "name": "",
          "type": "uint256"
        }
      ],
      "stateMutability": "view",
      "type": "function"
    },
    {
      "inputs": [],
      "name": "getCommodities",
      "outputs": [
        {
          "components": [
            {
              "internalType": "string",
              "name": "name",
              "type": "string"
            },
            {
              "internalType": "string",
              "name": "category",
              "type": "string"
            },
            {
              "internalType": "uint256",
              "name": "value",
              "type": "uint256"
            },
            {
              "internalType": "uint256",
              "name": "quantity",
              "type": "uint256"
            },
            {
              "internalType": "string",
              "name": "company",
              "type": "string"
            },
            {
              "internalType": "address",
              "name": "seller",
              "type": "address"
            }
          ],
          "internalType": "struct Ecommerce.Commodity[]",
          "name": "",
          "type": "tuple[]"
        }
      ],
      "stateMutability": "view",
      "type": "function"
    },
    {
      "inputs": [
        {
          "internalType": "address",
          "name": "_user",
          "type": "address"
        }
      ],
      "name": "getEthBalance",
      "outputs": [
        {
          "internalType": "uint256",
          "name": "",
          "type": "uint256"
        }
      ],
      "stateMutability": "view",
      "type": "function"
    },
    {
      "inputs": [],
      "name": "getMyProfile",
      "outputs": [
        {
          "components": [
            {
              "internalType": "string",
              "name": "firstName",
              "type": "string"
            },
            {
              "internalType": "string",
              "name": "lastName",
              "type": "string"
            },
            {
              "internalType": "uint256",
              "name": "age",
              "type": "uint256"
            },
            {
              "internalType": "string",
              "name": "gender",
              "type": "string"
            },
            {
              "internalType": "bool",
              "name": "isSeller",
              "type": "bool"
            },
            {
              "internalType": "string",
              "name": "email",
              "type": "string"
            },
            {
              "internalType": "uint256",
              "name": "balance",
              "type": "uint256"
            }
          ],
          "internalType": "struct Ecommerce.User",
          "name": "",
          "type": "tuple"
        }
      ],
      "stateMutability": "view",
      "type": "function"
    },
    {
      "inputs": [
        {
          "internalType": "address",
          "name": "_userAddress",
          "type": "address"
        }
      ],
      "name": "getUserById",
      "outputs": [
        {
          "internalType": "string",
          "name": "firstName",
          "type": "string"
        },
        {
          "internalType": "string",
          "name": "lastName",
          "type": "string"
        },
        {
          "internalType": "uint256",
          "name": "age",
          "type": "uint256"
        },
        {
          "internalType": "string",
          "name": "gender",
          "type": "string"
        },
        {
          "internalType": "bool",
          "name": "isSeller",
          "type": "bool"
        },
        {
          "internalType": "string",
          "name": "email",
          "type": "string"
        },
        {
          "internalType": "uint256",
          "name": "balance",
          "type": "uint256"
        }
      ],
      "stateMutability": "view",
      "type": "function"
    },
    {
      "inputs": [
        {
          "internalType": "string",
          "name": "_firstName",
          "type": "string"
        },
        {
          "internalType": "string",
          "name": "_lastName",
          "type": "string"
        },
        {
          "internalType": "uint256",
          "name": "_age",
          "type": "uint256"
        },
        {
          "internalType": "string",
          "name": "_gender",
          "type": "string"
        },
        {
          "internalType": "bool",
          "name": "_isSeller",
          "type": "bool"
        },
        {
          "internalType": "string",
          "name": "_email",
          "type": "string"
        }
      ],
      "name": "register",
      "outputs": [],
      "stateMutability": "nonpayable",
      "type": "function"
    },
    {
      "inputs": [
        {
          "internalType": "uint256",
          "name": "_amount",
          "type": "uint256"
        }
      ],
      "name": "updateBalance",
      "outputs": [],
      "stateMutability": "nonpayable",
      "type": "function"
    },
    {
      "inputs": [
        {
          "internalType": "address",
          "name": "",
          "type": "address"
        }
      ],
      "name": "users",
      "outputs": [
        {
          "internalType": "string",
          "name": "firstName",
          "type": "string"
        },
        {
          "internalType": "string",
          "name": "lastName",
          "type": "string"
        },
        {
          "internalType": "uint256",
          "name": "age",
          "type": "uint256"
        },
        {
          "internalType": "string",
          "name": "gender",
          "type": "string"
        },
        {
          "internalType": "bool",
          "name": "isSeller",
          "type": "bool"
        },
        {
          "internalType": "string",
          "name": "email",
          "type": "string"
        },
        {
          "internalType": "uint256",
          "name": "balance",
          "type": "uint256"
        }
      ],
      "stateMutability": "view",
      "type": "function"
    }
  ],
  "bytecode": "0x6080604052348015600f57600080fd5b506124088061001f6000396000f3fe6080604052600436106100a75760003560e01c8063a87430ba11610064578063a87430ba146101d2578063b425376914610215578063ba7b37d414610240578063d0e30db014610269578063f8b2cb4f14610273578063fcfd84e2146102b0576100a7565b806321527e50146100ac5780632301ab1e146100d757806346af4f571461011a5780634d2301cc14610143578063970907f514610180578063a3ac6c9b146101a9575b600080fd5b3480156100b857600080fd5b506100c16102f2565b6040516100ce919061171a565b60405180910390f35b3480156100e357600080fd5b506100fe60048036038101906100f991906117ae565b6105bf565b6040516101119796959493929190611843565b60405180910390f35b34801561012657600080fd5b50610141600480360381019061013c9190611a2f565b610883565b005b34801561014f57600080fd5b5061016a600480360381019061016591906117ae565b610a25565b6040516101779190611afe565b60405180910390f35b34801561018c57600080fd5b506101a760048036038101906101a29190611b45565b610a46565b005b3480156101b557600080fd5b506101d060048036038101906101cb9190611c42565b610b51565b005b3480156101de57600080fd5b506101f960048036038101906101f491906117ae565b610d31565b60405161020c9796959493929190611843565b60405180910390f35b34801561022157600080fd5b5061022a610fa0565b6040516102379190611dd7565b60405180910390f35b34801561024c57600080fd5b5061026760048036038101906102629190611c42565b61121f565b005b61027161127a565b005b34801561027f57600080fd5b5061029a600480360381019061029591906117ae565b611317565b6040516102a79190611afe565b60405180910390f35b3480156102bc57600080fd5b506102d760048036038101906102d29190611c42565b611362565b6040516102e996959493929190611e08565b60405180910390f35b6102fa611566565b6000803373ffffffffffffffffffffffffffffffffffffffff1673ffffffffffffffffffffffffffffffffffffffff1681526020019081526020016000206040518060e001604052908160008201805461035390611ead565b80601f016020809104026020016040519081016040528092919081815260200182805461037f90611ead565b80156103cc5780601f106103a1576101008083540402835291602001916103cc565b820191906000526020600020905b8154815290600101906020018083116103af57829003601f168201915b505050505081526020016001820180546103e590611ead565b80601f016020809104026020016040519081016040528092919081815260200182805461041190611ead565b801561045e5780601f106104335761010080835404028352916020019161045e565b820191906000526020600020905b81548152906001019060200180831161044157829003601f168201915b505050505081526020016002820154815260200160038201805461048190611ead565b80601f01602080910402602001604051908101604052809291908181526020018280546104ad90611ead565b80156104fa5780601f106104cf576101008083540402835291602001916104fa565b820191906000526020600020905b8154815290600101906020018083116104dd57829003601f168201915b505050505081526020016004820160009054906101000a900460ff1615151515815260200160058201805461052e90611ead565b80601f016020809104026020016040519081016040528092919081815260200182805461055a90611ead565b80156105a75780601f1061057c576101008083540402835291602001916105a7565b820191906000526020600020905b81548152906001019060200180831161058a57829003601f168201915b50505050508152602001600682015481525050905090565b60608060006060600060606000806000808a73ffffffffffffffffffffffffffffffffffffffff1673ffffffffffffffffffffffffffffffffffffffff168152602001908152602001600020905080600001816001018260020154836003018460040160009054906101000a900460ff1685600501866006015486805461064590611ead565b80601f016020809104026020016040519081016040528092919081815260200182805461067190611ead565b80156106be5780601f10610693576101008083540402835291602001916106be565b820191906000526020600020905b8154815290600101906020018083116106a157829003601f168201915b505050505096508580546106d190611ead565b80601f01602080910402602001604051908101604052809291908181526020018280546106fd90611ead565b801561074a5780601f1061071f5761010080835404028352916020019161074a565b820191906000526020600020905b81548152906001019060200180831161072d57829003601f168201915b5050505050955083805461075d90611ead565b80601f016020809104026020016040519081016040528092919081815260200182805461078990611ead565b80156107d65780601f106107ab576101008083540402835291602001916107d6565b820191906000526020600020905b8154815290600101906020018083116107b957829003601f168201915b505050505093508180546107e990611ead565b80601f016020809104026020016040519081016040528092919081815260200182805461081590611ead565b80156108625780601f1061083757610100808354040283529160200191610862565b820191906000526020600020905b81548152906001019060200180831161084557829003601f168201915b50505050509150975097509750975097509750975050919395979092949650565b6000803373ffffffffffffffffffffffffffffffffffffffff1673ffffffffffffffffffffffffffffffffffffffff16815260200190815260200160002060040160009054906101000a900460ff16610911576040517f08c379a000000000000000000000000000000000000000000000000000000000815260040161090890611f2a565b60405180910390fd5b60016040518060c001604052808781526020018681526020018581526020018481526020018381526020013373ffffffffffffffffffffffffffffffffffffffff168152509080600181540180825580915050600190039060005260206000209060060201600090919091909150600082015181600001908161099491906120f6565b5060208201518160010190816109aa91906120f6565b50604082015181600201556060820151816003015560808201518160040190816109d491906120f6565b5060a08201518160050160006101000a81548173ffffffffffffffffffffffffffffffffffffffff021916908373ffffffffffffffffffffffffffffffffffffffff16021790555050505050505050565b60008173ffffffffffffffffffffffffffffffffffffffff16319050919050565b6040518060e00160405280878152602001868152602001858152602001848152602001831515815260200182815260200160008152506000803373ffffffffffffffffffffffffffffffffffffffff1673ffffffffffffffffffffffffffffffffffffffff1681526020019081526020016000206000820151816000019081610acf91906120f6565b506020820151816001019081610ae591906120f6565b50604082015181600201556060820151816003019081610b0591906120f6565b5060808201518160040160006101000a81548160ff02191690831515021790555060a0820151816005019081610b3b91906120f6565b5060c08201518160060155905050505050505050565b600060018281548110610b6757610b666121c8565b5b906000526020600020906006020190506000816003015411610bbe576040517f08c379a0000000000000000000000000000000000000000000000000000000008152600401610bb590612243565b60405180910390fd5b80600201546000803373ffffffffffffffffffffffffffffffffffffffff1673ffffffffffffffffffffffffffffffffffffffff168152602001908152602001600020600601541015610c46576040517f08c379a0000000000000000000000000000000000000000000000000000000008152600401610c3d906122af565b60405180910390fd5b80600201546000803373ffffffffffffffffffffffffffffffffffffffff1673ffffffffffffffffffffffffffffffffffffffff1681526020019081526020016000206006016000828254610c9b91906122fe565b925050819055506001816003016000828254610cb791906122fe565b925050819055508060050160009054906101000a900473ffffffffffffffffffffffffffffffffffffffff1673ffffffffffffffffffffffffffffffffffffffff166108fc82600201549081150290604051600060405180830381858888f19350505050158015610d2c573d6000803e3d6000fd5b505050565b6000602052806000526040600020600091509050806000018054610d5490611ead565b80601f0160208091040260200160405190810160405280929190818152602001828054610d8090611ead565b8015610dcd5780601f10610da257610100808354040283529160200191610dcd565b820191906000526020600020905b815481529060010190602001808311610db057829003601f168201915b505050505090806001018054610de290611ead565b80601f0160208091040260200160405190810160405280929190818152602001828054610e0e90611ead565b8015610e5b5780601f10610e3057610100808354040283529160200191610e5b565b820191906000526020600020905b815481529060010190602001808311610e3e57829003601f168201915b505050505090806002015490806003018054610e7690611ead565b80601f0160208091040260200160405190810160405280929190818152602001828054610ea290611ead565b8015610eef5780601f10610ec457610100808354040283529160200191610eef565b820191906000526020600020905b815481529060010190602001808311610ed257829003601f168201915b5050505050908060040160009054906101000a900460ff1690806005018054610f1790611ead565b80601f0160208091040260200160405190810160405280929190818152602001828054610f4390611ead565b8015610f905780601f10610f6557610100808354040283529160200191610f90565b820191906000526020600020905b815481529060010190602001808311610f7357829003601f168201915b5050505050908060060154905087565b60606001805480602002602001604051908101604052809291908181526020016000905b8282101561121657838290600052602060002090600602016040518060c0016040529081600082018054610ff790611ead565b80601f016020809104026020016040519081016040528092919081815260200182805461102390611ead565b80156110705780601f1061104557610100808354040283529160200191611070565b820191906000526020600020905b81548152906001019060200180831161105357829003601f168201915b5050505050815260200160018201805461108990611ead565b80601f01602080910402602001604051908101604052809291908181526020018280546110b590611ead565b80156111025780601f106110d757610100808354040283529160200191611102565b820191906000526020600020905b8154815290600101906020018083116110e557829003601f168201915b50505050508152602001600282015481526020016003820154815260200160048201805461112f90611ead565b80601f016020809104026020016040519081016040528092919081815260200182805461115b90611ead565b80156111a85780601f1061117d576101008083540402835291602001916111a8565b820191906000526020600020905b81548152906001019060200180831161118b57829003601f168201915b505050505081526020016005820160009054906101000a900473ffffffffffffffffffffffffffffffffffffffff1673ffffffffffffffffffffffffffffffffffffffff1673ffffffffffffffffffffffffffffffffffffffff168152505081526020019060010190610fc4565b50505050905090565b806000803373ffffffffffffffffffffffffffffffffffffffff1673ffffffffffffffffffffffffffffffffffffffff16815260200190815260200160002060060160008282546112709190612332565b9250508190555050565b600034116112bd576040517f08c379a00000000000000000000000000000000000000000000000000000000081526004016112b4906123b2565b60405180910390fd5b346000803373ffffffffffffffffffffffffffffffffffffffff1673ffffffffffffffffffffffffffffffffffffffff168152602001908152602001600020600601600082825461130e9190612332565b92505081905550565b60008060008373ffffffffffffffffffffffffffffffffffffffff1673ffffffffffffffffffffffffffffffffffffffff168152602001908152602001600020600601549050919050565b6001818154811061137257600080fd5b906000526020600020906006020160009150905080600001805461139590611ead565b80601f01602080910402602001604051908101604052809291908181526020018280546113c190611ead565b801561140e5780601f106113e35761010080835404028352916020019161140e565b820191906000526020600020905b8154815290600101906020018083116113f157829003601f168201915b50505050509080600101805461142390611ead565b80601f016020809104026020016040519081016040528092919081815260200182805461144f90611ead565b801561149c5780601f106114715761010080835404028352916020019161149c565b820191906000526020600020905b81548152906001019060200180831161147f57829003601f168201915b5050505050908060020154908060030154908060040180546114bd90611ead565b80601f01602080910402602001604051908101604052809291908181526020018280546114e990611ead565b80156115365780601f1061150b57610100808354040283529160200191611536565b820191906000526020600020905b81548152906001019060200180831161151957829003601f168201915b5050505050908060050160009054906101000a900473ffffffffffffffffffffffffffffffffffffffff16905086565b6040518060e001604052806060815260200160608152602001600081526020016060815260200160001515815260200160608152602001600081525090565b600081519050919050565b600082825260208201905092915050565b60005b838110156115df5780820151818401526020810190506115c4565b60008484015250505050565b6000601f19601f8301169050919050565b6000611607826115a5565b61161181856115b0565b93506116218185602086016115c1565b61162a816115eb565b840191505092915050565b6000819050919050565b61164881611635565b82525050565b60008115159050919050565b6116638161164e565b82525050565b600060e083016000830151848203600086015261168682826115fc565b915050602083015184820360208601526116a082826115fc565b91505060408301516116b5604086018261163f565b50606083015184820360608601526116cd82826115fc565b91505060808301516116e2608086018261165a565b5060a083015184820360a08601526116fa82826115fc565b91505060c083015161170f60c086018261163f565b508091505092915050565b600060208201905081810360008301526117348184611669565b905092915050565b6000604051905090565b600080fd5b600080fd5b600073ffffffffffffffffffffffffffffffffffffffff82169050919050565b600061177b82611750565b9050919050565b61178b81611770565b811461179657600080fd5b50565b6000813590506117a881611782565b92915050565b6000602082840312156117c4576117c3611746565b5b60006117d284828501611799565b91505092915050565b600082825260208201905092915050565b60006117f7826115a5565b61180181856117db565b93506118118185602086016115c1565b61181a816115eb565b840191505092915050565b61182e81611635565b82525050565b61183d8161164e565b82525050565b600060e082019050818103600083015261185d818a6117ec565b9050818103602083015261187181896117ec565b90506118806040830188611825565b818103606083015261189281876117ec565b90506118a16080830186611834565b81810360a08301526118b381856117ec565b90506118c260c0830184611825565b98975050505050505050565b600080fd5b600080fd5b7f4e487b7100000000000000000000000000000000000000000000000000000000600052604160045260246000fd5b611910826115eb565b810181811067ffffffffffffffff8211171561192f5761192e6118d8565b5b80604052505050565b600061194261173c565b905061194e8282611907565b919050565b600067ffffffffffffffff82111561196e5761196d6118d8565b5b611977826115eb565b9050602081019050919050565b82818337600083830152505050565b60006119a66119a184611953565b611938565b9050828152602081018484840111156119c2576119c16118d3565b5b6119cd848285611984565b509392505050565b600082601f8301126119ea576119e96118ce565b5b81356119fa848260208601611993565b91505092915050565b611a0c81611635565b8114611a1757600080fd5b50565b600081359050611a2981611a03565b92915050565b600080600080600060a08688031215611a4b57611a4a611746565b5b600086013567ffffffffffffffff811115611a6957611a6861174b565b5b611a75888289016119d5565b955050602086013567ffffffffffffffff811115611a9657611a9561174b565b5b611aa2888289016119d5565b9450506040611ab388828901611a1a565b9350506060611ac488828901611a1a565b925050608086013567ffffffffffffffff811115611ae557611ae461174b565b5b611af1888289016119d5565b9150509295509295909350565b6000602082019050611b136000830184611825565b92915050565b611b228161164e565b8114611b2d57600080fd5b50565b600081359050611b3f81611b19565b92915050565b60008060008060008060c08789031215611b6257611b61611746565b5b600087013567ffffffffffffffff811115611b8057611b7f61174b565b5b611b8c89828a016119d5565b965050602087013567ffffffffffffffff811115611bad57611bac61174b565b5b611bb989828a016119d5565b9550506040611bca89828a01611a1a565b945050606087013567ffffffffffffffff811115611beb57611bea61174b565b5b611bf789828a016119d5565b9350506080611c0889828a01611b30565b92505060a087013567ffffffffffffffff811115611c2957611c2861174b565b5b611c3589828a016119d5565b9150509295509295509295565b600060208284031215611c5857611c57611746565b5b6000611c6684828501611a1a565b91505092915050565b600081519050919050565b600082825260208201905092915050565b6000819050602082019050919050565b611ca481611770565b82525050565b600060c0830160008301518482036000860152611cc782826115fc565b91505060208301518482036020860152611ce182826115fc565b9150506040830151611cf6604086018261163f565b506060830151611d09606086018261163f565b5060808301518482036080860152611d2182826115fc565b91505060a0830151611d3660a0860182611c9b565b508091505092915050565b6000611d4d8383611caa565b905092915050565b6000602082019050919050565b6000611d6d82611c6f565b611d778185611c7a565b935083602082028501611d8985611c8b565b8060005b85811015611dc55784840389528151611da68582611d41565b9450611db183611d55565b925060208a01995050600181019050611d8d565b50829750879550505050505092915050565b60006020820190508181036000830152611df18184611d62565b905092915050565b611e0281611770565b82525050565b600060c0820190508181036000830152611e2281896117ec565b90508181036020830152611e3681886117ec565b9050611e456040830187611825565b611e526060830186611825565b8181036080830152611e6481856117ec565b9050611e7360a0830184611df9565b979650505050505050565b7f4e487b7100000000000000000000000000000000000000000000000000000000600052602260045260246000fd5b60006002820490506001821680611ec557607f821691505b602082108103611ed857611ed7611e7e565b5b50919050565b7f4f6e6c792073656c6c6572732063616e2061646420636f6d6d6f646974696573600082015250565b6000611f146020836117db565b9150611f1f82611ede565b602082019050919050565b60006020820190508181036000830152611f4381611f07565b9050919050565b60008190508160005260206000209050919050565b60006020601f8301049050919050565b600082821b905092915050565b600060088302611fac7fffffffffffffffffffffffffffffffffffffffffffffffffffffffffffffffff82611f6f565b611fb68683611f6f565b95508019841693508086168417925050509392505050565b6000819050919050565b6000611ff3611fee611fe984611635565b611fce565b611635565b9050919050565b6000819050919050565b61200d83611fd8565b61202161201982611ffa565b848454611f7c565b825550505050565b600090565b612036612029565b612041818484612004565b505050565b5b818110156120655761205a60008261202e565b600181019050612047565b5050565b601f8211156120aa5761207b81611f4a565b61208484611f5f565b81016020851015612093578190505b6120a761209f85611f5f565b830182612046565b50505b505050565b600082821c905092915050565b60006120cd600019846008026120af565b1980831691505092915050565b60006120e683836120bc565b9150826002028217905092915050565b6120ff826115a5565b67ffffffffffffffff811115612118576121176118d8565b5b6121228254611ead565b61212d828285612069565b600060209050601f831160018114612160576000841561214e578287015190505b61215885826120da565b8655506121c0565b601f19841661216e86611f4a565b60005b8281101561219657848901518255600182019150602085019450602081019050612171565b868310156121b357848901516121af601f8916826120bc565b8355505b6001600288020188555050505b505050505050565b7f4e487b7100000000000000000000000000000000000000000000000000000000600052603260045260246000fd5b7f4f7574206f662073746f636b0000000000000000000000000000000000000000600082015250565b600061222d600c836117db565b9150612238826121f7565b602082019050919050565b6000602082019050818103600083015261225c81612220565b9050919050565b7f536f6c646520696e737566666973616e74000000000000000000000000000000600082015250565b60006122996011836117db565b91506122a482612263565b602082019050919050565b600060208201905081810360008301526122c88161228c565b9050919050565b7f4e487b7100000000000000000000000000000000000000000000000000000000600052601160045260246000fd5b600061230982611635565b915061231483611635565b925082820390508181111561232c5761232b6122cf565b5b92915050565b600061233d82611635565b915061234883611635565b92508282019050808211156123605761235f6122cf565b5b92915050565b7f4d6f6e74616e7420696e76616c69646500000000000000000000000000000000600082015250565b600061239c6010836117db565b91506123a782612366565b602082019050919050565b600060208201905081810360008301526123cb8161238f565b905091905056fea264697066735822122063ffce9fbb19455f40ad2c5602facd7662a8f00e7a8e4a212cb8cfeccee9ee0c64736f6c634300081c0033",
  "linkReferences": {},
  "deployedLinkReferences": {}
}